:020000041000EA
:10000000002008205D0100101B0100101D010010E0
:100010001101001011010010110100101101001058
:100020001901001019010010190100101F01001022
:10003000110100101901001021010010230100100E
:100040001101001011010010110100101101001028
:100050001101001011010010110100101101001018
:100060001101001011010010110100101101001008
:1000700011010010110100101101001011010010F8
:1000800011010010110100101101001011010010E8
:1000900011010010110100101101001011010010D8
:1000A00011010010110100101101001011010010C8
:1000B00011010010110100101101001011010010B8
:1000C00011010010110100101101001011010010A8
:1000D0001101001011010010110100101101001098
:1000E0001101001011010010110100101101001088
:1000F0001101001011010010110100101101001078
:100100001101001011010010110100101101001067
:10011000EFF30580103800BE00BE00BE00BE00BE7A
:1001200000BE00BEF2EB887190CA0610C0CA06106D
:10013000A001001090A31AE7D3DEFFFF42012110B7
:10014000FF010000C01D0700793512AB4FF0000021
:100150001E49086006C881F3088810474FF05040D8
:10016000006810B14FF00000F2E70DA40ECC00299A
:1001700002D000F012F8F9E71549164A002000E015
:1001800001C19142FCD11449884714498847144958
:10019000884700BEFDE701C901C29A42FBD3704700
:1001A000C0CA0610100100201C550020CC1E0710EC
:1001B000000008202C000820F81E0710001008205E
:1001C00000100820000000007047000008ED00E06B
:1001D0001C550020643701204975021091A20110BE
:1001E00041750210F8B500BF08B5034B1BB10349B8
:1001F0000348AFF3008008BD0000000090FC002021
:1002000088DD0210F8B50E4668BB1D4A1D4992F9FB
:10021000093092F91240002BACBF12230823A3EB44
:1002200024130B60184B1B78B3B9184A44F303042A
:10023000174DC4F10807136031463A4628462CF0A2
:1002400049FF14F1080205D0C2F5887031462844F0
:100250002CF040FFE819F8BD127A92060CD40B4A34
:1002600052F82330E2E7074B1B681844E32805DC0B
:10027000034A92F91240D5E70023D6E70020F8BDE3
:1002800058800020704C002031370120B4800020BD
:1002900078FB00202DE9F04FB24B8B465A7883B0A3
:1002A000960740F1D68002224FF0100C0092F02702
:1002B0006FF00F060022E146DB7D002A00EB030110
:1002C0004FF00003A84A18BF4FF0F80E156808BF9A
:1002D0004FF0F00E2C1F9846C9B27C350FE0A0F508
:1002E00080706044884208F1010A06DB5FFA8AF8F0
:1002F000B8F1040F43F0010310D0AC420BD02246FA
:1003000014F8040F5B00D02805D08645E7DB88424F
:10031000E7DBAC42F3D1002B00F08B80B9F1080F82
:1003200000F0B4800139DFF848A20191D80740F10C
:10033000838092F90750D479002D50797FDB14F037
:100340000F0471D01AF824E0947915790199E4002A
:10035000BD4204F4FC64C8BFA5F580750C44641B61
:10036000824D0028D5F800800BEB000508EB04094E
:100370007ADBB84240F308816FF480710844009939
:10038000604401FA00F0013880F47F4080F0FF0003
:1003900018F8048099F8104044EA0824204010F42A
:1003A0007F4F1FD0040448BF85F800E0410448BFD8
:1003B00085F801E0840448BF85F802E0C10448BF25
:1003C00085F803E0040548BF85F804E0410548BF0F
:1003D00085F805E0840548BF85F806E0C10548BFFB
:1003E00085F807E0C4B2FCB1040648BF85F808E010
:1003F000410648BF85F809E0840648BF85F80AE051
:10040000C10648BF85F80BE0040748BF85F80CE03B
:10041000410748BF85F80DE0840748BF85F80EE026
:10042000C10748BF85F80FE05B08A2F104027FF422
:100430007DAF03B0BDE8F08F5B08043A76E7203863
:10044000B0423FF77CAF5B08A2F104027FF46EAFCD
:10045000EFE74FF400724FF0080C0092F8276FF0AE
:1004600007060122E14627E718F8048099F81040B2
:1004700044EA0824C0F100084FF4803040FA08F044
:100480000138204010F47F4F90D1ABE7DFF8DC80DB
:10049000DFF8DCA001F1FF39DD0754D592F9074000
:1004A000D179002C507951DB11F00F0144D092F832
:1004B00004E0774552DB94791AF82150D8F80010FF
:1004C00009EBC4040028A4EB0E0401910BEB000E11
:1004D00050DB87425BDA6FF4807108440099604416
:1004E00001FA00F0013880F47F4080F0FF000199AC
:1004F000095D10EA01211FD00C0401D58EF80050CF
:10050000480401D58EF801508C0401D58EF80250B4
:10051000C80401D58EF803500C0501D58EF804509F
:10052000480501D58EF805508C0501D58EF806508A
:10053000C80501D58EF807505B08A2F104023FF40C
:1005400078AFDD07AAD45B08043AA5E720388642D5
:10055000AADB5B08A2F10402F3D16AE7AEF5807E64
:10056000A9E700BF588000204C8000204880002070
:10057000B48000200C5D4FF48031404201410139CC
:1005800011EA0421BCD1D7E74FF6FF7000E74FF620
:10059000FF70ACE72DE9F84F454B464E1B780546FA
:1005A00016F823402146FFF72DFE00286DD0424B60
:1005B0005A7851066BD54FF0000A404A64F3070A97
:1005C00064F30F2A64F3174A127864F31F6A8146B2
:1005D0000472C0F800A0C0F804A0002A5ED0384A17
:1005E000116800295AD0DA7DEB082A4402F007028C
:1005F00001EB020E28214FF0FF3213FB0123314A99
:1006000009F1FF08127816F822102F4A10681844D2
:1006100009F10F0310F801CF1EF83C201EF93C50E1
:1006200034EA250B28BF8B4612F0400F0CBF27463B
:100630000F4612F0200F0CBF26460E4612F0100F88
:100640000CBF25460D4612F0080F0CBFA4468C4681
:10065000520703F806BC03F8057C03F8046C03F8A2
:10066000035C03F802CC1CD503F8011C0633984543
:10067000D0D14FF0000364F3070364F30F2389F82C
:10068000FF40C9F8F9A0A9F8FD30BDE8F88F214670
:10069000BDE8F84F4FF480722CF01CBD0B4A116876
:1006A000A1E703F8014C06339845B3D1E1E700BF59
:1006B00031370120B48000205880002047370120C6
:1006C000187B0020363701209073002088730020AB
:1006D0002DE9F04F4D4E4E4C337885B014F8231071
:1006E0000546FFF78FFD002874D04A4B5B785B0608
:1006F00073D5484B0146DB7DE818474BC0B21B78E9
:10070000002B74D0454B1A68002A70D0444BDFF898
:1007100018B11D68830003F47873013B05EB030EE9
:1007200000F0070302EB030C01F58472CDE901210F
:1007300001F1080303901EF8011FDBF80020C80830
:10074000125C1CF93150160902F00F021CF831003E
:1007500014F8222014F8261032EA250928BF894609
:1007600010F0400F0CBF9046884610F0200F0CBFD1
:1007700017460F4610F0100F0CBF16460E4610F02D
:10078000080F0CBF15460D4610F0040F0CBF924623
:100790008A4610F0020F03F8078C0CBF904688467B
:1007A000C00703F803AC03F8089C03F8067C03F8C1
:1007B000056C03F8045C03F8028C1BD5019A03F85E
:1007C000011C08339A42B6D1124BDDE902101B7AA4
:1007D0009B0716D505B0BDE8F08F4FF480723378D3
:1007E00014F8231005B0BDE8F04F2CF073BC0D4B8E
:1007F0001A688BE703F8012C019A08339A429AD1C0
:10080000E2E705B0BDE8F04FFFF744BD3137012006
:10081000B48000205880002047370120187B00203A
:100820009073002088730020987700202DE9F04F06
:10083000504E514C337885B014F823100546FFF71D
:10084000E1FC00287CD04D4B5B785F067BD50146F0
:100850004A4BDFF83C81DB7D494FE818494BC0B279
:100860001A68830003F47873013B02EB030C01F573
:1008700084724FEA401ECDE9012100F007030EF417
:10088000C05E414E414D4EEA030E039001F1080354
:100890001CF8019FD8F8002039680EEBC90909EA55
:1008A00002028A5C3068D5F800A0110909EA000943
:1008B00002F00F021AF8090014F821101AF9099031
:1008C00014F8222032EA290A28BF8A4610F0400F85
:1008D0000CBF9146894610F0200F0CBF93468B4603
:1008E00010F0100F03F808AC0CBF92468A4610F0C7
:1008F000080F03F8079C0CBF9146894610F0040FBF
:1009000003F806BC0CBF93468B4610F0020F03F8A9
:10091000049C0CBF91468946C00703F803BC03F84A
:1009200005AC03F8029C18D5019A03F8011C0833A2
:100930009A42ADD1114BDDE902101B7A9B0713D50A
:1009400005B0BDE8F08F4FF48072337814F82310AF
:1009500005B0BDE8F04F2CF0BDBB03F8012C019AA7
:1009600008339A4294D1E5E705B0BDE8F04FFFF7B0
:1009700091BC00BF31370120B48000205880002096
:1009800098770020907300208C73002088730020DB
:100990009C7700202DE9F843DFF8CC802E4C98F8A6
:1009A0000030054614F82310FFF72CFC002841D036
:1009B0002A4F7B785A063FD50646B446FB7D06F59E
:1009C0008079E818264B5FFA80F81D68254BC0F344
:1009D0008200054418684FEA880303F47873013BEA
:1009E00018440022134610F8011F0CF1080C15F8EA
:1009F00031E0E1454FEA1E110EF00F0E14F8211000
:100A000014F82EE061F307026EF3070361F30F227F
:100A10006EF30F2361F317426EF3174361F31F6206
:100A20006EF31F634CF8082C4CF8043CD9D13B7A88
:100A30009B070BD5BDE8F88398F800304FF480721F
:100A400014F82310BDE8F8432CF044BB314640466F
:100A5000BDE8F843FFF71EBCB4800020588000209A
:100A60008873002090730020313701202DE9F04F6A
:100A7000584F594D3B7883B015F8236004463146F2
:100A8000FFF7C0FB00287FD0544A53785B067ED521
:100A90000023534966F3070366F30F2366F31743F6
:100AA000097866F31F638646067203604360002977
:100AB00075D04C4B1968002971D0D37D0022234496
:100AC00003F0070301EB030A474B48491B68096819
:100AD0004748E40804EB840401EA440103EA0413F0
:100AE0000468013B0C444349DFF818B10E68CDF8A7
:100AF00004E01E4413460EF10C01580708BF14F819
:100B0000012B10065CD49BF8000015F82080387883
:100B100015F820C016F8010F52001AF8300003F142
:100B2000010E3F2894BFE146C14610F0300F01F896
:100B3000039C0CBFE146C14610F00C0FD2B201F885
:100B4000029C2FD05FFA8EF3502B01F8018C01F13B
:100B50000301D2D100224FF000013B78DDF804E020
:100B600015F8233063F3070263F30F2263F30701E1
:100B700063F3174263F30F2163F31F628EF8FF30B4
:100B8000AEF8FD10CEF8F92003B0BDE8F08F4FF4B9
:100B90008072314603B0BDE8F04F2CF09BBA164B83
:100BA00019688AE75FFA8EF3502B01F801CC01F146
:100BB0000301CFD0580708BF14F8012B1006A2D5A7
:100BC0000E4890F800C00E4815F82C80007815F8F3
:100BD00020C09FE731370120B480002058800020DA
:100BE00047370120187B0020947300209C77002059
:100BF0009877002090730020887300204C370120E4
:100C00004B370120363701202DE9F04FDFF8B08354
:100C1000002298F80130DFF8ACA39D074BBF0023FA
:100C200001234FF010094FF00809DAF80060002B9B
:100C30004F46A6F1040314BF4FF0F80E4FF0F00E2C
:100C4000154698F817C083B07C360EE0A4F5807482
:100C50004C44A04205F1010B05DC5FFA8BF5082D31
:100C600042F0010213D0B3420ED013F804BF520079
:100C7000ABEB0C04BBF1D80FE4B205D07445E5DC56
:100C80008442E5D3B342F0D1002A00F09280082FCD
:100C900000F0DE804FF0000CDFF820B30191D407A4
:100CA00040F18A8098F817501E78013D0544DAF823
:100CB0000040AD1BEDB21E1B2C4404EB8604A4F5D2
:100CC0000074247804F040064CEA060C14F00F0679
:100CD00068D064B2E7439C7893F80190E400DBF8B5
:100CE00000E00199FF0F04F4FC642C4409EB471960
:100CF0001CF0200F1EF8047001EB09051EF904100A
:100D0000A6445CD00029C0F29980790602D56C789F
:100D100034436C70BC0602D5AC783443AC70F90631
:100D200002D5EC783443EC703C0702D52C7934437F
:100D30002C71790702D56C7934436C71BC0702D5EC
:100D4000AC793443AC71F90702D5EC793443EC71DA
:100D50009EF910709EF81040002FC0F22A8167069D
:100D600002D56F7A37436F72A10602D5AF7A374347
:100D7000AF72E70602D5EF7A3743EF72210702D54B
:100D80002F7B37432F73670702D56F7B37436F7312
:100D9000A10702D5AF7B3743AF73E70702D5EC7BE2
:100DA0003443EC7352084FEA5C0CA3F104037FF464
:100DB00076AF03B0BDE8F08F5208043B6FE700291F
:100DC000B8BF01994FEA5C0CB8BF01F809607C0616
:100DD00048BF6E70B90648BFAE70FC0648BFEE70E3
:100DE000390748BF2E717C0748BF6E71B90748BFED
:100DF000AE71FC0748BFEE719EF910709EF810406E
:100E0000002FB8BF2E72610648BF6E72A70648BF9A
:100E1000AE72E10648BFEE72270748BF2E73610726
:100E200048BF6E73A70748BFAE73E10748BFEE73B4
:100E30005208A3F104037FF432AFBAE7019911F825
:100E40000940344301F8094079067FF563AF5EE756
:100E500000265A4FD4075DD598F817401D78013CFD
:100E60000444641BDAF80050E4B2A3EB050C2544FB
:100E700005EB8C05A5F500752D7805F0400C46EACC
:100E80000C0615F00F0C3CD06DB2ED4393F802E068
:100E900093F80190D7F800B0ED0F04EBCE0E09EBFC
:100EA000451916F0200F1BF80E4001EB09051BF940
:100EB0000EE032D1BEF1000F01DA01F809C014F0E2
:100EC000400F01D085F801C014F0200F01D085F843
:100ED00002C014F0100F01D085F803C014F0080F01
:100EE00001D085F804C014F0040F01D085F805C0C6
:100EF00014F0020F01D085F806C0E40701D585F88B
:100F000007C052084FEA5606A3F104033FF451AF5D
:100F1000D407A1D45208043B9CE7BEF1000F05DAC8
:100F200011F809E04CEA0E0E01F809E014F0400F48
:100F300005D095F801E04CEA0E0E85F801E014F0BA
:100F4000200F05D095F802E04CEA0E0E85F802E07D
:100F500014F0100F05D095F803E04CEA0E0E85F85A
:100F600003E014F0080F05D095F804E04CEA0E0EEB
:100F700085F804E014F0040F05D095F805E04CEA7C
:100F80000E0E85F805E014F0020F05D095F806E086
:100F90004CEA0E0E85F806E0E407B2D5EC7952086B
:100FA0004CEA0404EC714FEA5606A3F10403AFD1F6
:100FB000FFE62F7A37432F72D1E600BF488000202A
:100FC000588000204C80002030B5464A46491478AD
:100FD000464B00F0030E0870C0F3810CC0F3011102
:100FE000032C4FEA901083F800E083F801C0997059
:100FF000D8703FD05378032B28D09378032B13D08D
:10100000D378032B00D030BD022847D00022384BC4
:101010003849400100F5CC70CA701A181958526846
:10102000354BC3E9061230BD022952D00024304BA3
:10103000304D490101F5C87103EB010CAC705C58EF
:10104000DCF804102C4BC3E90441D9E7BCF1020FD2
:1010500036D00024264B274D4FEA4C1C0CF5C47C9F
:101060006C7003EB0C0453F80C506468224BC3E91A
:101070000254C2E7BEF1020F19D000241C4B1D4DD3
:101080000EF10C0E2C704FEA4E1403EB4E1E1D5940
:10109000DEF80440184BC3E90054ABE7144B174982
:1010A000D3F8D8210968521A18BF0122B0E7134CAF
:1010B0000F4B2568D3F8C041641B18BF0124DEE73D
:1010C0000E4C0B4B2568D3F8C841641B18BF012494
:1010D000C1E70A4C064B2568D3F8D041641B18BF02
:1010E0000124A5E7605700204237012088570020DF
:1010F0006055002020550020685700200C7B002000
:101100002DE9F0414F4E504C3378CCB014F82310F9
:101110008046FFF777F8002800F083804B4F7B78FC
:101120005A0609D44FF48072337814F823104CB067
:10113000BDE8F0412BF0CEBF05464FF48072002190
:1011400008A82BF0C7FF3B7A9B0703D469464046AB
:10115000FFF75AFD3E49FA7D0968424401EA02213F
:101160003C4A89B2126808310AAB05F108000DF556
:10117000947C0A4413F8081C11B912F8081C0909D8
:1011800054F8215013F8071C00F8085C11B912F844
:10119000071C090954F8215013F8061C00F8075CD5
:1011A00011B912F8061C090954F8215013F8051C4E
:1011B00000F8065C11B912F8051C090954F8215011
:1011C00013F8041C00F8055C11B912F8041C090995
:1011D00054F8215013F8031C00F8045C11B912F8FC
:1011E000031C090954F8215013F8021C00F8035C91
:1011F00011B912F8021C090954F8215013F8011C06
:1012000000F8025C81B912F8011C0833090954F88E
:101210002110634500F1080002F1080200F8091CE2
:10122000A8D14CB0BDE8F08154F8211008339C459A
:1012300000F8011C02F1080200F108009AD14CB03C
:10124000BDE8F08131370120B480002058800020B3
:1012500094730020907300202DE9F041544E554CBA
:101260003378CCB003F0030314F823108046FEF764
:10127000C9FF002800F08A804F4F7B785A060BD4B4
:101280004FF48072337803F0030314F823104CB04A
:10129000BDE8F0412BF01EBF05464FF480720021DF
:1012A00008A82BF017FF3B7A9B0703D469464046FA
:1012B000FFF7AAFC4149FA7D0968424401EAC211DC
:1012C0003F4AC1F30E01126804310AAB05F1080070
:1012D0000DF5947C0A4413F8081C11B912F8041C8B
:1012E000890954F8215013F8071C00F8085C19B953
:1012F00012F8041CC1F3810154F8215013F8061CA4
:1013000000F8075C11B912F8031C890954F8215040
:1013100013F8051C00F8065C19B912F8031CC1F398
:10132000810154F8215013F8041C00F8055C11B930
:1013300012F8021C890954F8215013F8031C00F814
:10134000045C19B912F8021CC1F3810154F8215050
:1013500013F8021C00F8035C11B912F8011C89098A
:1013600054F8215013F8011C00F8025C89B912F8F6
:10137000011C0833C1F3810154F82110634500F1C9
:10138000080002F1040200F8091CA4D14CB0BDE829
:10139000F08154F8211008339C4500F8011C02F13B
:1013A000040200F1080096D14CB0BDE8F08100BF06
:1013B00031370120B4800020588000209473002031
:1013C0009073002070B50021CCB00546FEF71AFFDF
:1013D00010B3124E737813F0400106D14FF48072AF
:1013E0004CB0BDE870402BF075BE04464FF48072DF
:1013F000002108A82BF06EFE337A9B0703D46946C0
:101400002846FFF701FC2346002204F580711A608C
:101410005A6008339942FAD14CB070BD5880002010
:101420002DE9F04F814E824C3378CDB014F8231063
:101430008046FEF7E7FE68B17E4F7B785A060CD4F3
:101440004FF48072337814F823104DB0BDE8F04F9C
:101450002BF040BE4DB0BDE8F08F05464FF48072D2
:10146000002108A82BF036FE3B7A9B0703D469467F
:101470004046FFF7C9FBFB7D6F4E4344DBB24FEAAA
:10148000431E03F007000EF4C05E4EEA000E6B48E8
:101490009900006801F478710139DFF8AC81684F78
:1014A00005F108020AAB00EB010C0DF5947A47E058
:1014B00014F82BB002F808BC13F807BCBBF1000FFE
:1014C00067D014F82BB002F807BC13F806BCBBF1C8
:1014D000000F6AD014F82BB002F806BC13F805BC54
:1014E000BBF1000F6DD014F82BB002F805BC13F857
:1014F00004BCBBF1000F70D014F82BB002F804BC90
:1015000013F803BCBBF1000F73D014F82BB002F832
:1015100003BC13F802BCBBF1000F76D014F82BB05B
:1015200002F802BC13F801BCBBF1000F79D014F82B
:101530002B000833534502F8010C02F1080289D050
:101540001CF8011FD8F800500EEBC101386801EA01
:101550000509356810F8090029403A4D4FEA101B7B
:1015600000F00F092D6814F82B0013F808BC14F8CC
:101570002990695CBBF1000F9AD111F0800F14BF64
:101580008346CB4602F808BC13F807BCBBF1000F3A
:1015900097D111F0400F14BF8346CB4602F807BC29
:1015A00013F806BCBBF1000F94D111F0200F14BF4B
:1015B0008346CB4602F806BC13F805BCBBF1000F0E
:1015C00091D111F0100F14BF8346CB4602F805BC31
:1015D00013F804BCBBF1000F8ED111F0080F14BF3B
:1015E0008346CB4602F804BC13F803BCBBF1000FE2
:1015F0008BD111F0040F14BF8346CB4602F803BC15
:1016000013F802BCBBF1000F88D111F0020F14BF18
:101610008346CB4602F802BC13F801BCBBF1000FB5
:1016200085D111F0010F08BF484682E7313701200C
:10163000B4800020588000208C730020907300201C
:1016400098770020887300209C770020F0B5002157
:10165000CDB00546FEF7D6FD58B14D4E737813F068
:10166000400108D14FF480724DB0BDE8F0402BF03E
:1016700031BD4DB0F0BD04464FF48072002108A882
:101680002BF028FD337A6F469B0771D428466946B4
:10169000FFF7BAFA3F4BF17D1B683F4A294403EA42
:1016A000012312689DF820509BB21A449DF8210036
:1016B0009DF822309DF8231015B1384E16F82550AC
:1016C000257010B1354D15F82000607013B1334806
:1016D00010F82330A37011B1304B13F82110E170D2
:1016E0003B462E49043204F108000DF1FC0E0AE0DD
:1016F00011F824400433734500F8014C02F1040250
:1017000000F10400B5D093F824402CB912F8044C31
:1017100014F0080C02D0240911F824C093F82540D5
:1017200000F804CC2CB912F8034C14F0080C02D0C9
:10173000240911F824C093F8264000F803CC2CB9F2
:1017400012F8024C14F0080C02D0240911F824C03D
:1017500093F8274000F802CC002CC9D112F801CC34
:101760001CF008041CBF4FEA1C1C11F82C40C1E7F8
:10177000084BF17D1B68294403EA01230021064A36
:101780009BB2126808461A4421700B469DE700BFC1
:10179000588000209473002090730020B4800020B3
:1017A0002DE9F0417C4E7D4C3378CCB014F82310F9
:1017B0008046FEF727FD002800F0DB80784F7B781D
:1017C0005A0609D44FF48072337814F823104CB0C1
:1017D000BDE8F0412BF07EBC05464FF4807200213D
:1017E00008A82BF077FC3B7A9B0703D46946404658
:1017F000FFF70AFA6B49FA7D0968424401EAC2110F
:10180000694AC1F30E01126808310CAB05F11000F2
:101810000A4413F8101C11B912F8081C090954F8ED
:10182000215013F80F1C00F8105C19B912F8081CAD
:1018300001F00F0154F8215013F80E1C00F80F5C52
:1018400011B912F8071C090954F8215013F80D1C9E
:1018500000F80E5C19B912F8071C01F00F0154F8DA
:10186000215013F80C1C00F80D5C11B912F8061C7D
:10187000090954F8215013F80B1C00F80C5C19B935
:1018800012F8061C01F00F0154F8215013F80A1C3D
:1018900000F80B5C11B912F8051C090954F8215025
:1018A00013F8091C00F80A5C19B912F8051C01F0BC
:1018B0000F0154F8215013F8081C00F8095C11B905
:1018C00012F8041C090954F8215013F8071C00F8F9
:1018D000085C19B912F8041C01F00F0154F82150EA
:1018E00013F8061C00F8075C11B912F8031C09096B
:1018F00054F8215013F8051C00F8065C19B912F8C9
:10190000031C01F00F0154F8215013F8041C00F8D7
:10191000055C11B912F8021C090954F8215013F89A
:10192000031C00F8045C19B912F8021C01F00F0145
:1019300054F8215013F8021C00F8035C11B912F896
:10194000011C090954F8215013F8011C00F8025C2D
:1019500091B912F8011C103001F00F0154F8211058
:10196000103300F8111C4CA98B4202F108027FF4DD
:1019700050AF4CB0BDE8F08154F82110103300F89E
:10198000011C4CA9994202F1080200F110007FF4F9
:1019900040AF4CB0BDE8F08131370120B480002069
:1019A000588000209473002090730020F0B500212F
:1019B000CDB00546FEF726FC00285BD0354E737887
:1019C00013F0400106D14FF480724DB0BDE8F040F5
:1019D0002BF080BB04464FF48072002108A82BF046
:1019E00079FB337A9B0747D469462846FFF70CF901
:1019F0009DF820009DF821109DF822209DF82330AD
:101A000010B1254D15F82000207011B1224810F8B2
:101A10002110617012B1204911F82220A27013B177
:101A20001D4A12F823301C4DE37004F108000AAB84
:101A300049AC13F8042C0AB115F8222013F8031C42
:101A400000F8042C09B115F8211013F8022C00F845
:101A5000031C0AB115F8222013F8011C00F8022C0F
:101A600079B155F8212004339C4200F8012C00F193
:101A70000400DED14DB0F0BD00221346227062702A
:101A8000CCE704339C4200F8011C00F10400D0D1E3
:101A90004DB0F0BD58800020B480002040F2F233F9
:101AA000994233D0002936D030B4204C204A2368E4
:101AB000002B33DD15688D4224D0012B2ED05568C4
:101AC000A9421FD0022B29D09568A9421AD0032B16
:101AD00024D0D568A94215D0042B1FD01569A9427E
:101AE00010D0052B1AD05569A9420BD0062B15D062
:101AF0009569A94206D0072B10D0D5698D4201D037
:101B0000082B0BD130BC0B4B186070470A4A137876
:101B100083F001031370074B1860704742F82310DD
:101B200001332360034B30BC18607047BC160120A2
:101B3000087200206CFB00205837012040F2F2337D
:101B4000994233D0002932D030B4264C2368002B80
:101B500028DD254A1568A9422CD0012B22D05568D2
:101B60008D4232D0022B1DD09568A9422FD0032B75
:101B700018D0D568A9422CD0042B13D01569A942DE
:101B800029D0052B0ED05569A94226D0062B09D0A5
:101B90009569A94223D0072B04D0D5698D4208BF8F
:101BA000072108D030BC114B1860704770470F4BAD
:101BB000186070470021013B236052F8233030BC8D
:101BC00042F82130094B186070470121F3E70221E8
:101BD000F1E70321EFE70421EDE70521EBE706211B
:101BE000E9E700BFBC160120087200206CFB002052
:101BF00000220748074910B4074B046809681C60B5
:101C000006485DF8044BC3E921125A6019F08CBFF5
:101C10004C4C0020484C0020007A002088DD021047
:101C200008B51AF083F819F0BBFF014B186008BD26
:101C300068FB00202DE9F04FB74BB84A1B681268CB
:101C400097B0019213F0080240F0928118242425E5
:101C500002943424CDE9044504242125039431243D
:101C6000CDE9144529241125CDE91245192439253A
:101C7000CDE9104525240925CDE90E451524352546
:101C8000CDE90C453D242D25CDE90A450D250995C5
:101C900005250895012506923021202210202827AD
:101CA00038264FF0080C4FF0140B4FF02C0A4FF071
:101CB0003C094FF01C084FF00C0E1D2407955D07E2
:101CC00000F13E81964C069D2570DD0709D55846EA
:101CD00057464E46F446039ACDF808802270DDE957
:101CE00004129D0704D53A463146029884F800C094
:101CF000DF0644BF0A4620701E0648BF227013F458
:101D0000006240F0CD8018244FF0240E0294342459
:101D1000CDE9044E0424212503943124CDE9134553
:101D200029241125CDE9114519243925CDE90F457F
:101D300025240925CDE90D4515243525CDE90B458B
:101D40003D242D25CDE909450D241D25CDE9074567
:101D500001251592302120221020282738264FF007
:101D6000080C4FF0140B4FF02C0A4FF03C094FF0C9
:101D70001C084FF00C0E052406955D0579D4694CBE
:101D8000159D2570DD0509D5584657464E46F44643
:101D9000039ACDF808802270DDE904129D0504D570
:101DA0003A463146029884F800C0DD0444BF0A4632
:101DB00020709B044FF0FF3348BF22705A4A5B49A2
:101DC0001468C1E90033002CC1E9023323DD584A0D
:101DD000584E02EB840452F8043B142B3AD0A3F57E
:101DE0007A70162813D80F2813D8DFE810F04501B1
:101DF0003D011200120035012D01120012002501D3
:101E0000120012001D0115010D010501FD00FF2B3F
:101E100021DD9442DFD1019B13F0090F03D08B79B0
:101E200023F001038B71019B13F0120F03D08B7908
:101E300023F002038B71404B1B781BB18B7923F08D
:101E400001038B713D4816F043F817B0BDE8F04F21
:101E500018F09ABA7F2316F81300FF28D9D006EBA2
:101E600043030D5C5B78944225EA03030B54B2D123
:101E7000D1E7DDE90F560295DDE90D5C05950C9D76
:101E800003940495274C069DDDF81CE02570DDE9E0
:101E90001312DDE91170DDE90AABDDE9088971E7AC
:101EA0001A244FF0260E02943624CDE9044E06245F
:101EB000232503943324CDE913452B241325CDE9A1
:101EC00011451B243B25CDE90F4527240B25CDE9E2
:101ED0000D4517243725CDE90B453F242F25CDE9A6
:101EE00009450F241F250222CDE907450325159238
:101EF0003221222212202A273A264FF00A0C4FF0D4
:101F0000160B4FF02E0A4FF03E094FF01E084FF00F
:101F10000E0E0724069530E768FB00206CFB0020BE
:101F2000393701203A370120BC160120247B0020DC
:101F300008720020AC4A002058370120447200206B
:101F4000DDE910560295DDE90E5C05950D9DA04674
:101F5000DDE9084EDDE91412DDE91270DDE90BABB5
:101F600004950394079D484CDDF828902570ACE655
:101F70001A244FF0260E02943624CDE9044E06248E
:101F8000232503943324CDE914452B241325CDE9CF
:101F900012451B243B25CDE9104527240B25CDE90F
:101FA0000E4517243725CDE90C453F242F25CDE9D3
:101FB0000A450F2509950725022208950325069253
:101FC0003221222212202A273A264FF00A0C4FF003
:101FD000160B4FF02E0A4FF03E094FF01E084FF03F
:101FE0000E0E1F2407956AE6CB79944223F0010375
:101FF000CB717FF4F0AE0EE78B79944223F00403AB
:102000008B717FF4E8AE06E78B79944223F00803E6
:102010008B717FF4E0AEFEE68B79944223F01003DF
:102020008B717FF4D8AEF6E68B79944223F02003CF
:102030008B717FF4D0AEEEE6CB79944223F00403AB
:10204000CB717FF4C8AEE6E60B7A944223F020030E
:102050000B727FF4C0AEDEE60B7A944223F01003DD
:102060000B727FF4B8AED6E60B7A944223F04003AD
:102070000B727FF4B0AECEE60B7A944203F07F038E
:102080000B727FF4A8AEC6E6393701204FF6FF7316
:10209000984207D00B4B420B53F82230C0F30C0090
:1020A000185C7047084BDB78032B06D0054BDB69C7
:1020B00003F5805393F8FF0F7047044B1878C04323
:1020C000C0B2704768570020605700204237012097
:1020D000C3B2B52B70B528D88F2B23D9903B252BB5
:1020E00020D8DFE803F0AE1F1F1F1F1F1F1F5377ED
:1020F0001F1F1F1F1F1F1F1F961F1F1F1F1F333351
:1021000033331F1F1F1F1F1F1F1F1F13974B984A7B
:102110001B78147803F00F030C2B40F285800D2BF5
:1021200000F08C80FF24204670BDD92B1DD0A3F178
:10213000FC02032AF6D88F4A8F49134413F8FC4C4B
:102140000A7864EA0204E4B2204670BD8B4B8C4CE2
:102150009A7900F1580102F00F02A25C18461A7237
:10216000C9B2BDE8704003F0EBBC864B86491A68E3
:102170000B78002A00F0AB8084481A440068145C95
:10218000013303F01F030B70204670BD0125804909
:10219000804C81480B8825700468804AE55C0133D7
:1021A000C3F30D0314780B801570002BBBD17C4B4F
:1021B0001B78032BB7D97B497B4A8B7B1268013391
:1021C000013A1340794ADBB212688B7302EB833316
:1021D0000360A8E70121734E754DF37B6D4A8B4276
:1021E000EC5C11707BD0072B73D0002B9BD14FF68A
:1021F000FF722B786F4903F05F032B700B786E48EA
:1022000003F0FE03002B0B700CBF1346FF23038566
:1022100089E76A4890F846300E2B1AD00F2B14D05D
:10222000BDE8704003F054BA14F003040BD0644AC4
:1022300004EB440104EB81042244D45C44F0F00438
:1022400071E7FD246FE7F0246DE7C47B04F0F00430
:1022500069E7C27B50064CBF5A495B49C2F3801301
:102260000978002947D059480229C05C45D0012887
:1022700043D0042877D8DFE800F01A18160D0300C1
:102280005349544ACC5CD35C04F00F041C4344F023
:10229000400448E74E4A4F49D25CCC5C44EA1214F1
:1022A00044F040043FE74C49EBE74B4AF3E7002B8F
:1022B00038D091061FD4434A1278012A3BD8474BA5
:1022C0001B78DC4304F03F0444F040042BE7FF2478
:1022D00056E70EF035F986F82C00E87123E76B78A5
:1022E000344923F001036B700B784FF6FF723248CC
:1022F00003F0FD0386E77F2415E7302500263849E3
:10230000344CE554CC5C374D7F2CCE54E95CA8BFEF
:102310007F247F29A8BF7F21EE542F4DEC542C4CF5
:10232000E154A6E7D206E6D4274A1278012A02D859
:102330002D4B1B78C5E7284A2649D25CCC5C72B18C
:1023400012F0800F14BF0422082221491443CB5CF1
:102350003BB113F0800F14BF0123022396E70C2238
:10236000F3E7032392E743F04004DCE64137012022
:1023700040370120907E00203F370120EC7D002077
:10238000247B0020207B00203B3701201C7B002089
:102390001E37012049370120A8800020483701203E
:1023A0004537012058800020544C0020AC8000208C
:1023B000988000203837012044720020F87D0020EA
:1023C000A87E00205E4C00205F4C0020387D00205D
:1023D000447D002040720020407D00203A370120DB
:1023E000E47D0020E87D00203937012070B5AA4C3B
:1023F000830BE25C012A2BD0022A28D1A74B93F849
:1024000000C00123A64D55F82360B6B100F47F4506
:10241000B5F5184F43D0B5F5384F34D0A14DED5C2C
:10242000ADB1BCF1060F12D8DFE81CF05300790003
:102430009F00CE00E50008014C01B0F5104F0CD113
:10244000A1F13F01B1FA81F1974A4909D15470BD18
:10245000964B93F800C00023D4E700F47F42B2F516
:10246000184F28D0B2F5384FF1D18F4AD35C002BEA
:10247000EDD0C0B29F280BD88D4B1B68034403F5E9
:10248000C053197004E0884DED5C002DC6D0C0B279
:102490000A46BDE870400146864803F013BF824DEE
:1024A000ED5C002DBAD0C3B20A46BDE870401946B3
:1024B000804803F0F3BF7C4AD35C002BC7D00506ED
:1024C000C3B2F1D47A4A12681A4402F5C0521170AC
:1024D000EAE7A0F580442404B9D440130428A0F10D
:1024E000020409D1A1F13F0EBEFA8EFEDFF8B8C199
:1024F0004FEA5E1E0CF803E00D406F4901EB8303C9
:10250000195DA942A3D01D556C496D4B06EB4535AD
:1025100000EB421241F8225043F8205070BDA0F564
:102520008044240493D405EA41056349801300F0F4
:10253000020001EB8303195CA94288D060491D5455
:102540005E4C831C06EB453541F8235003EB4213E8
:1025500044F823508B68033003F5005300EB42121C
:1025600044F8223041F8203070BDA0F5A0441FFA95
:1025700084FCBCF5C04F3FF66AAFC0F30C00B0F569
:10258000805F7FF464AF6413022C08D1A1F13F0C8B
:10259000BCFA8CFC44484FEA5C1C00F803C00D40B8
:1025A000454901EB8303195DA9423FF450AF1D5526
:1025B00042490234424B06EB453504EB421241F8E6
:1025C000225043F8245070BDA0F5C044B4F5804FAC
:1025D0003FF63DAFC0F30C04002C7FF438AF0D4044
:1025E0003549401301EB8303811E5C5CAC423FF430
:1025F0002EAF5D5488E7A0F5C04CBCF5005FBFF47A
:1026000026AF0D402C49C0F3C12001EB8303195CB8
:10261000A9423FF41CAF04EB50041D5463782749D2
:10262000023006EB453500EB4214934241F824504A
:102630007FF40DAF224B43F8205070BDA0F5C04C85
:10264000BCF5005FBFF403AF05EA41051A49C012AB
:1026500000F0020001EB8303195CA9423FF4F7AEDE
:1026600004EB50041D54647806EB4535134B861C6F
:1026700006EB4211033043F8215000EB421C05F5F4
:102680000051944243F82C107FF4E1AE0C4B43F818
:10269000265043F8201070BD605700205C4C00208D
:1026A000947E0020A47E0020DC7E00205D4C002073
:1026B0000C7B0020E07E00209C7E002060550020E6
:1026C00068570020A0F5C044B4F5804F19D8C0F376
:1026D0000C04002C7FF4BBAECC0680D518480068F3
:1026E00050B3FF25174C090201F40051084404EBD4
:1026F000C2125061144A154902EB8303DD70486130
:1027000070BD00F5A04292B2B2F5805FBFF49FAEFB
:102710000D4A02EB8303DB78FF2B7FF498AE0B4B63
:10272000C0F30B005A6940F48054115401225869D7
:10273000074B01551A7070BD06480068D1E700BF0D
:1027400024800020605500209C7E002068570020D7
:10275000443701200C7B00204FF6FF7290428C46DC
:1027600017D010B4164C820BA25C52B1154A410B23
:1027700052F82120C0F30C0302F803C05DF8044BAB
:102780007047A0F580431B04F8D45DF8044BFFF7B5
:102790002DBE0D4BDB78032B0AD0094BDB7833B110
:1027A000084BDB6903F5805383F8FF1F70477047C0
:1027B000064B1B788B42FAD00846FEF705BC00BFDB
:1027C0002055002068570020605700204237012024
:1027D000034B1B78834201D0FEF7F6BB704700BF66
:1027E00042370120012901D9002070472DE9F04F1F
:1027F00087B00C46054619F015FDC44982462846A7
:1028000019F072FC0646002846D0C14F3B78002BD9
:1028100040F0BF80324601210DF1120019F0A2FCF8
:10282000012132460DF1130019F09CFC9DF8123085
:10283000412B00F09C803B78002B40F0B5800022BB
:102840004FF48041304619F0CBFC002828DA9DF87F
:102850001230412B00F018814FF000083B78002B1C
:1028600040F0C08000223046AAF5804119F0B8FC43
:10287000002880F29D809DF81230412B05D14FF049
:1028800000099DF81330422B26D03B78002B40F0F6
:10289000AD80304619F08EFC002007B0BDE8F08F07
:1028A000324601210DF1120019F05CFC3246012183
:1028B0000DF1130019F056FC9DF81230412BCBD1CD
:1028C0009DF81330A3F14208B8FA88F84FEA581877
:1028D000422BC3D14FF000093B78002B40F03381ED
:1028E000BAF5804F4FEA6A3BC0F28D81012676002F
:1028F0005E45FCDBB8F1000F7CD1BBF1040F40F367
:102900004B81844B013E02931E55284619F08AFCE8
:10291000064619F00BF9002E40F383817E4819F02A
:1029200003F9284617F020FE7C4A11687C4A42F8D9
:102930002410621CABF10300012800F2C880794D1D
:1029400001F5005C05EBC21301F5804401F5C040C0
:10295000D601A951C3E901C1C3E903C4C3E9050410
:10296000D8613B78002B40F0FC80012095E79DF872
:102970001330422B7FF45FAF3A78002A40F0E080BA
:10298000BAF5804F4FEA6A3BC0F274819046914697
:10299000ACE7284619F0C8F83B78002B3FF43AAF73
:1029A000504619F0C3F835E75F4819F0BDF846E71F
:1029B000324601210DF1120019F0D4FB32460121FB
:1029C0000DF1130019F0CEFB9DF81230412B7FF46E
:1029D0005CAF9DF81330A3F14209B9FA89F94FEAC7
:1029E000591950E7504819F09FF83BE74F4819F044
:1029F0009BF84EE70022474B02931A554FEA4B33A0
:102A0000B3F5004F019380DC700319F095F8DFF8FF
:102A100010A101464AF82400002800F0C88044486C
:102A2000444B0278039143F8221001320270284689
:102A300019F0F8FB009019F079F8009B002B40F397
:102A4000B6803D4819F070F80399009A2846009125
:102A500019F0FAFB00995E454AF8241019DCBBF125
:102A6000020F04F1010200F088803FF768AF2D4D9E
:102A7000D60105EBC212A951C2E90111C2E9031145
:102A8000C2E90511D1616CE74FF000089DF81330E1
:102A90001EE72A4819F048F85AF82450019806EB26
:102AA000D671A6EB0B02ABEB610105EB4131520392
:102AB00028442AF03DFEBBF1020F5AF8241004F11D
:102AC00001025AD03FF736AFBBF1010FCFD0B8F1BA
:102AD000000F70D0134D01F50053D60105EBC21263
:102AE000536001F58043936001F5C043D36001F565
:102AF0000043136101F52043A951536101F540439F
:102B000001F560419361D1612BE700BFC0DD021088
:102B10006D4C0020A47E0020ACDD0210BC4E0020D5
:102B2000947E002060550020C4DD0210D0DD02102C
:102B300032370120987300209CDD0210F8DD02106E
:102B40004FF00008C146504818F0EEFF002305A8DA
:102B5000ADF8143004F141038DF8143018F0E4FF9F
:102B6000BEE64A48354418F0DFFFAB68D8789B785A
:102B700003EB002018F0DAFFF7E6454D01F50053AE
:102B8000D60105EBC212A951C2E90131C2E90331F4
:102B9000C2E90531D361E4E670034FF000083D4B14
:102BA0004FEA4B320293019203F804802DE73A4832
:102BB00018F0BAFF70E6029B185DB9F1000F32D130
:102BC000364B334D00F0020C00F0030603F824905E
:102BD00001EB463603EB840301EB4C3C05EBC214DE
:102BE00000F0010EC4E904C6D60100F0010201EBB9
:102BF0004E3E5A7000F0020200F00300C4E9021ECB
:102C00009A70D870ADE6B8F1000F38D00022214B91
:102C1000464602931A554FEA4B334FF40050019346
:102C2000F3E6002182E65FFA8BF3A3F1020E00EADD
:102C30000E08C646164DD60101EB483806F1080CC1
:102C400045F80C80154AAC44013BCCF8088000EAFA
:102C5000030801EB483102EB8403CCF80410CCF8F4
:102C60000C1002F824E083F802E083F8018083F876
:102C7000038076E691464FF4005001268DE74FF42D
:102C80000050012689E700BFECDD021008DE0210CB
:102C900060550020A47E002034E902109C7E0020B4
:102CA0002DE9F04FC04B1A785978C2F3420201F077
:102CB00018010A43122A14D8DFE812F039009900EB
:102CC000AD00C100D4001E011300E700FA0013009C
:102CD0001300130013001300130013000C01130062
:102CE0003101B24A1078062840F22D810D2800F0FB
:102CF0004881AF4940F2FF7701EBC00C9CF804B06B
:102D00009CF806809CF805609CF8074011F830504C
:102D10009CF802E09CF801106FEA0B0B6FEA0808C0
:102D2000F643E4434FF00B0A9CF803C010E04FF069
:102D3000FF344FF0FF0C40F2FF374FF03F0E4FF0E3
:102D40000A0A7F2501202646A046A3466146974AE7
:102D500010709A7840F2FF79154042EA0B0202FAAD
:102D60000AF23A435F7905FA0AF507EA0C0C93F880
:102D700003A027438F4C0AEA01014AEA060A2668A3
:102D80009C7A93F806B0A40304EB8114D97A3544F5
:102D9000C90301EBCC1193F804C034440CEA0E0EC5
:102DA000314406EBCE2E06EBCB2B834E4CEA080CBF
:102DB00046EA8A1AA6F57F5646EAC7167F4F49EAC1
:102DC000CC233D607E4DC5F800E07E4D2C607E4CEE
:102DD00021607E49C1F800B07D490A607D4A1360D8
:102DE0007D4BC3F800A07D4B1E60BDE8F08F4FF017
:102DF000FF346FF07F066FF0030840F2FF374FF0AB
:102E0000FF0C80214FF03C0E4FF00A0A7F25022074
:102E1000A346664A9CE76FF003046FF07F0640F21A
:102E2000FF374FF0FF3B4FF0FC0C80214FF03C0E82
:102E30004FF00A0A7F250420A0465C4A88E74FF03D
:102E4000FF3600216FF0030440F2FF376FF01F0BD5
:102E50004FF0FC0C4FF00A0A60250520B0468E4664
:102E6000524A75E74FF0FF3600216FF0030440F23D
:102E7000FF376FF01F0B4FF0FC0C4FF00A0A602574
:102E80000620B0468E46494A62E74FF0FF360021E1
:102E90006FF0030440F2FF776FF01F0B4FF0FC0C54
:102EA0004FF00B0A20250820B0468E463F4A4FE7D8
:102EB0004FF0FF3440F2FF374FF0FF0C00214FF08E
:102EC0003F0E4FF00A0A7F2503202646A046A34660
:102ED000364A3DE74FF0FF344FF0000C40F2FF3729
:102EE0004FF03F0E4FF00A0A7F252646A046A34624
:102EF000614660462D4A2BE74FF0FF3600216FF008
:102F0000030440F2FF776FF01F0B4FF0FC0C4FF003
:102F10000B0A20250720B0468E46244A18E74FF0BA
:102F2000FF346FF0070640F2FF376FF0030B4FF0EE
:102F3000000CF8214FF03F0E4FF00A0A7C250D20BF
:102F4000A0461A4A04E71A4940F2FF3701EBC00CC9
:102F50009CF804B09CF806809CF805609CF807403B
:102F600011F830509CF802E09CF801106FEA0B0B4E
:102F70006FEA0808F643E4434FF00A0A9CF803C0DE
:102F8000E6E64FF0FF346FF0070640F2FF376FF0D0
:102F9000030B4FF0000CF8214FF03F0E4FF00A0AE0
:102FA0007C25A046D4E600BF58800020453701208C
:102FB000F8EF0210AC8000203FC0010090730020A9
:102FC00088730020987700204C80002048800020E3
:102FD000947300208C7300209C7700205080002088
:102FE00070B504460D462E2833D8DFE810F03500C2
:102FF000530061006D008900A200BE00C8003200CD
:103000003200D100E50032003200F900050109016B
:103010001001320032003200320032003200320041
:10302000140132003200320032003200320032002D
:103030003200320032003200320032003200320000
:10304000320032003200190132002F0008460DF024
:1030500091FA8C4E355570BD8B4A5378DE0711D5E9
:10306000C8060FD44FF6FF71884823F00103537050
:103070000378874A03F0FD03002B03700CBF0B4657
:10308000FF2313857F4E3378AB42E3D03570FFF7D3
:1030900007FEDFE77C4B93F90030002BC0F2DE80A7
:1030A000784E7378AB42D5D07570FFF7F9FDD1E754
:1030B000784B1B78062B40F2B8800D2B00F0B580C2
:1030C00040F2FF760B20B3E0724B6E4E1A78724BD3
:1030D000724903EBC20393F801C05B79704A65EA59
:1030E000030342EA8312B37A086805EA0C0C9B03D7
:1030F0006C4903EB8C1303440B606B4B1A60A9E71C
:10310000644B66491A78644B096803EBC2039E78E6
:103110009A79664805EA060301EBC323036040F28F
:10312000FF73634965EA020243EAC223554E0B600E
:1031300090E7584B534E1A78574B584903EBC2034C
:1031400093F803C0DB795B4A65EA030342EAC312E2
:10315000F37A086805EA0C0CDB03574903EBCC1340
:1031600003440B60554B1A6074E74C4B544A1B6880
:1031700001F03F0503EBC523424E13606AE7514B54
:10318000514A0909197005F00F033E4E137061E7AB
:10319000404A414B11783B4E404A03EBC1035878FB
:1031A0001368F27805F007051040AA033D4902EBC9
:1031B000801213440B604DE7364A374B1178314E7D
:1031C000364A03EBC103D8781368727905F003051A
:1031D0001040EA03384902EBC01213440B6039E790
:1031E0003A4A2E4B12681B68013A3949154003EBE5
:1031F0008533244E0B602DE7224E01F00F0529E7A1
:103200000122344B1F4E01F00F051A7022E71D4EAC
:1032100001F0BF051EE71B4E7176FFF741FD19E770
:1032200008460DF06DF9174E14E740F2FF360A20FC
:10323000194A1A4902EBC30C12F8332009682A40D4
:103240009CF8043082400A44234965EA03030A607B
:103250008340224A334313600A4EFBE60B4AA90619
:10326000137806D543F001031370FF22084B1A852B
:1032700016E703F0FE031370002BF6D14FF6FF7232
:10328000F4E700BF588000209880002038370120E4
:103290004472002045370120F8EF0210AC80002076
:1032A0003FC00100987700209C77002088730020A1
:1032B0008C7300207F8001004C8000205080002013
:1032C000488000203637012031370120544C00203F
:1032D000A88000203C3701209073002094730020C8
:1032E000F8B5C3B2D92B00F275817B2B66D97C3B34
:1032F0005D2B63D8DFE813F0EA00EF0062006200A4
:1033000062006200620062006200620062006200AD
:10331000620062006200620062006200620062009D
:10332000620062006200620062006200620062008D
:10333000F400210146015001620062006200620057
:103340005E0163016200620062006200620062006E
:103350006300630063006300620062006200620059
:1033600062006200620062005E00C60062006200ED
:10337000620062006200620062006200620062003D
:10338000620062006200620062006200620062002D
:10339000620062006200620062006200620062001D
:1033A000620062006200620062006200620062000D
:1033B000D000DD00B54B01F00F011970F8BDB44D20
:1033C00000F15803B34E0A462846D9B202F084FBF6
:1033D0003278AB79934240F04881AF492B790A7833
:1033E0009A42EBD0AD4A03F00300C3F38105C3F367
:1033F000011C0B7003284FEA93131070557082F86C
:1034000002C0D37000F00A8200221646A449A54CDF
:1034100002EB80025001267001EB42120E585268F6
:10342000A148032DC0E9006200F0F2810022164697
:1034300002EB85025201083266708E188D58726850
:10344000BCF1030FC0E9025200F0DC8100221546F6
:1034500002EB8C0252011032A5708E188D587268E2
:10346000032BC0E9045200F0C7810022154602EB8D
:1034700083035B011833E570CC18CA586368C0E950
:103480000623F8BD814B1B780C2B40F23B810D2BA2
:1034900094D1864B1970F8BD0024854A854813687D
:1034A000490103F4FC3301F4FC610B430470136025
:1034B000F8BD00247E4A7F481368C90203F4FC6308
:1034C00001F4FC310B4304701360F8BD7A48BDE889
:1034D000F8400DF08FBA7848BDE8F8400DF06ABCAE
:1034E0004FF0010C7548764E764A0578764C138875
:1034F000206886F800C0002D00F0AD80C15413880C
:1035000072486344C3F30D0301701380002B7FF4F2
:1035100055AF6F4B1B78032B7FF650AF6D486E4A4B
:10352000837B11686D4A0133013912680B40DBB2AD
:1035300002EB833283732260F8BD614B1A78002A54
:1035400040F08480012001F0C002402A187000F091
:103550009081802A00F07381002A7FF42FAF604BA6
:10356000594C1B78574803EB012354499BB20A700E
:1035700021680380C95C554A0133C3F30D03117000
:103580000380C3E7574C2378002B00F0FA80002318
:10359000554A23701170F8BD4E4D6B7C03F03F040B
:1035A000112C6DD11E063FF509AF013404F03F0424
:1035B0006C74F8BD4D48BDE8F84001F019BF4B4BA5
:1035C00093F846200F2A00F0AF80BDE8F840474846
:1035D00001F014BFFC3B032B3FF6F0AE444B454ECD
:1035E00004301D78C4B2335D0D40AB423FF4E6AE0B
:1035F000414B1B781B0700F11881404A274912688C
:103600006300DBB202EB853235550D5D244903F1D1
:10361000700041F8202003F1710602F50052032DDD
:1036200041F8262003F101067FF4C8AE344D2D5D2C
:10363000022D7FF4C3AE51F8205001201A4941F801
:103640002350184B41F826201855F8BD0022244875
:1036500001701A70F8BDC65C1C4D0133C3F30D0335
:1036600013802E70C154138850E783EA02042106A8
:1036700000F1F280E20600F1EA80AB793370ACE64B
:103680002046FFF7ADFC6B7C8CE700BF4137012083
:10369000EC7D0020373701203E37012060570020A5
:1036A0006055002020550020685700204037012039
:1036B0001C7B00203B370120487D00204A37012039
:1036C000493701201E370120A880002048370120FB
:1036D0004537012058800020544C0020AC80002049
:1036E0002D3701203C3701203D370120F87D002097
:1036F0003F370120907E00206D4C00208C7E002002
:1037000088570020714A7248147804F0030202EBD3
:10371000420502EB85020244A007D1547FF54EAE6C
:1037200001226C4B1A70F8BD01F00C020C2A00F05B
:103730009C80694A1278022A0BD9DA7B4A409506A6
:1037400007D5664A5078042814BF0124FD2420447C
:10375000507001F00302032A00F08380604A12785F
:10376000022A7FF632AFDB7B4B40DC067FF52DAFC4
:103770005A4A1378042B14BF0120FD200344137010
:1037800023E74FF0010C574B574E1B7801F0070110
:1037900003F07002C2EB0222100903F00703534A40
:1037A000C1EB0121C3EB0323A6FB000684F800C094
:1037B000A2FB0104A2FB03024D4D091B9B1A02EB65
:1037C000530204EB510133042C7C4A48890843EA34
:1037D000920343EA012340F82430474BC2F38702A7
:1037E00043F82440C9B22346F0B216F0A3FD631C8F
:1037F00003F00F032B74F8BD404AD278022A43D05D
:10380000002534E63D4A9278022A4ED000251FE674
:103810003A4A5278022A50D0002609E6374A1278EE
:10382000022A39D000263649F1E5364818F07CF9ED
:10383000284618F07BF9A00318F078F9DDE6324B42
:1038400001F03F001978BDE8F840FFF7C9BBFF2140
:10385000002003F0A5F810E74021002003F0A0F8B5
:1038600008E700221D4B1A70AFE600201B4A50707B
:103870006FE7254B25481B78254C03EB0123C3F349
:103880000D0302702380F8BD224DD1F8D8612D6858
:10389000AD1B18BF0125EAE51E490E681849D1F88D
:1038A000C041361B18BF0126B1E51A4D2E68D1F86C
:1038B000D051AD1B18BF0125CAE5164ED1F8C8710D
:1038C0003668F61B18BF0126B2E500BF403701205D
:1038D000A87E0020433701205E4C0020387D002068
:1038E0005F4C00203D37012026499224254992242F
:1038F000588000204C7E0020B48000208857002093
:103900006055002014DE02102D3701204A370120B7
:103910001E3701200C7B00202DE9F04F264C274A52
:10392000237885B003F0800343F01F000021126864
:10393000207003E00131202900F0E68212F8210016
:10394000D028F7D11E4C5FFA81F86178207A8C0775
:1039500000F0200040F1F381B8F1000F00F0A982DF
:10396000184902EB880508F1FF342E464FF0000994
:103970001D46CDE90284D1F800A002E0964200F095
:103980009882D37809F1010903F00F0303435FFA2A
:1039900089F902F10402F1D0029B994580F08982F5
:1039A000039902F1080EA1EB0901C9B2CDE9009615
:1039B000131D0EEB810E0BE0988000204C80002040
:1039C00058800020488000200433734500F0748242
:1039D00013F8011C01F00F010143F5D012F8048C1B
:1039E00013F804CCA8EB0C01C9B2A1F11004E4B2A5
:1039F000E02CE9D912F803BC13F8039CABEB0904E3
:103A0000E4B2A4F11006F6B2E02EDDD912F8026C91
:103A100013F8027CF600FF0006F4FC6607F4FC676E
:103A20000F295644574400F24D82F02C0F4405D91B
:103A3000B4463E466746A9EB0B04E4B296F8008014
:103A400096F810C097F800900CEB082C97F81080AF
:103A50001FFA8CFC08EB09284CFA04FC1FFA88F8C2
:103A60001CEA080F40F069810F29ADD096F801805B
:103A700096F811C097F801900CEB082C97F811807C
:103A80001FFA8CFC08EB09284CFA04FC1FFA88F892
:103A90001CEA080F40F051810E2995D096F802805B
:103AA00096F812C097F802900CEB082C97F8128049
:103AB0001FFA8CFC08EB09284CFA04FC1FFA88F862
:103AC0001CEA080F40F039810D293FF47DAF96F8CC
:103AD000038096F813C097F803900CEB082C97F826
:103AE00013801FFA8CFC08EB09284CFA04FC1FFA1F
:103AF00088F81CEA080F40F020810C293FF464AFDD
:103B000096F8048096F814C097F804900CEB082CF3
:103B100097F814801FFA8CFC08EB09284CFA04FC77
:103B20001FFA88F81CEA080F40F007810B293FF4C0
:103B30004BAF96F8058096F815C097F805900CEBFA
:103B4000082C97F815801FFA8CFC08EB09284CFA12
:103B500004FC1FFA88F81CEA080F40F0EE800A29DE
:103B60003FF432AF96F8068096F816C097F80690A4
:103B70000CEB082C97F816801FFA8CFC08EB092830
:103B80004CFA04FC1FFA88F81CEA080F40F0D580B4
:103B900009293FF419AF96F8078096F817C097F8EF
:103BA00007900CEB082C97F817801FFA8CFC08EB99
:103BB00009284CFA04FC1FFA88F81CEA080F40F0A8
:103BC000BC8008293FF400AF96F8088096F818C02A
:103BD00097F808900CEB082C97F818801FFA8CFCCB
:103BE00008EB09284CFA04FC1FFA88F81CEA080FB5
:103BF00040F0A38007293FF4E7AE96F8098096F8D5
:103C000019C097F809900CEB082C97F819801FFA47
:103C10008CFC08EB09284CFA04FC1FFA88F81CEA13
:103C2000080F40F08A8006293FF4CEAE96F80A804D
:103C300096F81AC097F80A900CEB082C97F81A809F
:103C40001FFA8CFC08EB09284CFA04FC1FFA88F8D0
:103C50001CEA080F71D105293FF4B6AE96F80B8027
:103C600096F81BC097F80B900CEB082C97F81B806C
:103C70001FFA8CFC08EB09284CFA04FC1FFA88F8A0
:103C80001CEA080F59D104293FF49EAE96F80C8027
:103C900096F81CC097F80C900CEB082C97F81C8039
:103CA0001FFA8CFC08EB09284CFA04FC1FFA88F870
:103CB0001CEA080F41D103293FF486AE96F80D8027
:103CC00096F81DC097F80D900CEB082C97F81D8006
:103CD0001FFA8CFC08EB09284CFA04FC1FFA88F840
:103CE0001CEA080F29D102293FF46EAE96F80E8027
:103CF00096F81EC097F80E900CEB082C97F81E80D3
:103D00001FFA8CFC08EB09284CFA04FC1FFA88F80F
:103D10001CEA080F11D100297FF456AE96F80FC0A7
:103D2000F17FFE7B01EB0C2189B22141FC7F04EB8A
:103D30000624A4B221423FF447AE2B46B5E0B8F1C9
:103D4000000F00F0B680754902EB880608F1FF37D6
:103D50004FF000091C46B446CDE90287D1F800A017
:103D600002E0624500F0A580D37809F1010903F073
:103D70000F0303435FFA89F902F10402F1D0029BB9
:103D8000994580F09680039902F10807A1EB09019B
:103D9000C9B2CDE9009C131D07EB810703E0043392
:103DA000BB4200F08C8013F8011C01F00F010143AD
:103DB000F5D012F804CC13F8046CACEB0601C9B2D0
:103DC000A1F10805EDB2F02DE9D912F803BC13F802
:103DD000039CABEB0905EDB2A5F1080E5FFA8EFE70
:103DE000BEF1F00FDBD912F8028C13F802EC0729B0
:103DF0000AEBC8080AEBCE0E76D8F82D8E4405D90A
:103E00004646F046B646A9EB0B05EDB298F80060C1
:103E10009EF800C02E4116EA0C0F45D10729BED0EE
:103E200098F801609EF801C02E4116EA0C0F3BD1B4
:103E30000629B4D098F802609EF802C02E4116EA16
:103E40000C0F31D10529AAD098F803609EF803C061
:103E50002E4116EA0C0F27D10429A0D098F804604F
:103E60009EF804C02E4116EA0C0F1DD1032996D0EE
:103E700098F805609EF805C02E4116EA0C0F13D184
:103E800002298CD098F806609EF806C02E4116EAEA
:103E90000C0F09D1002982D198F8071029419EF80A
:103EA000075029423FF47BAF23461D4A43F03F03AE
:103EB000137005B0BDE8F08FDDE900965EE5DDE941
:103EC000009C4EE7ACEB080C5FFA8CF1F02C0E4432
:103ED00006D9B4463E466746A9EB0B095FFA89F45A
:103EE0000F297FF6ABAD6FE5A6EB0C06F1B2F82D0E
:103EF000884406D94646F046B646A9EB0B095FFA58
:103F000089F5072982D94AE7064C8846207A6478E1
:103F100000F02000A1073FF523AD14E74880002002
:103F200098800020588000202DE9F0479F4ADFF854
:103F3000D0829378044683F020039F0698F80060AF
:103F4000937043D50D46002E3ED00D2E0CBFA02001
:103F5000AA20974F974997F809C009681CF0020AF0
:103F6000A1EB000113BF002001204EF65819DFF825
:103F70009492002840F2051008BF4FF49C708E4EBA
:103F8000E161D6F800E070454BDC8C4B1B6899452D
:103F9000C0F2A580DFF870920CF0EAFC884B1B6839
:103FA00023B9884B1B78002B40F086803368C02BE8
:103FB00042D04FF6FF7399F80020002A0CBF184634
:103FC000FF202085BDE8F087A020C2E7002E71D039
:103FD0000D2E0CBFA021AA21754F774E787AE16192
:103FE0008507316800F1C780B1F5827F00F39680C4
:103FF00001313160002900F0938010F0800F0CBF78
:10400000EB23F523DFF800928B4299F8000000F0D3
:10401000BC8000F39B80002840F049814FF6FF7080
:10402000CFE71CF0800F61D1BEF1C00F40F00981D5
:104030000022644B1A70ADE73B7A9A0706D498F8D1
:104040000030013B0B2B01D8FFF766FC5B4B5E4950
:104050001B685E4881FB03211944DB17C3EBE12198
:1040600001F03AFB5A4B59481B78002B0CBF022138
:10407000822101F051FC0221564802F069F8022128
:1040800055480CF0BDFC4FF4417002F01FFF0121B8
:10409000524A296013780B4403F007005B07107045
:1040A00087D54F4B1B78002B83D04E4A137A0B4396
:1040B00013727EE7A0218FE73068FF283FF779AFC2
:1040C0007A7E98F800301107C0B218D5D91F01299F
:1040D00015D8D10640F1FE80FDF7B8FA13E0A3EB46
:1040E00009030B44DFF82091E36155E7BEF1D40FDB
:1040F0009ED0BAF1000F14BFFE20E620A6E03A4A97
:1041000052F823309847394B32681B684FF4887156
:1041100013443748E42216F021F947E700213160C3
:1041200023F04003937001232648254903700B6850
:104130000BB9304B1B78013B0B602F490B78002BE0
:1041400064D0013B0B700021DFF8BC90FB7D99F837
:1041500000000B44F97C5B1ADBB23978022B01F0CA
:10416000100100F0928000297FF455AF537823F0BE
:10417000010353704FE7B1F59C7FCFDA0131316015
:104180000029CDD04FF480733CE7537800F0FD0058
:1041900023F00103537089F80000002840F0848068
:1041A0004FF6FF72154B1A8538E700BF9880002044
:1041B00058800020644C002028800020684C00209B
:1041C000A84A00203437012049FC7292F87D002073
:1041D00046370120E07E0020487D00202C3701205A
:1041E0002E370120247B00200C4C0020704C002036
:1041F00078FB00206C4C00202F37012044720020F7
:1042000045370120C416010038370120334D7B7B30
:104210002E78B6FA86F0400928704BB1002E48D1AE
:1042200003F00F0303EB83035B000B70002B8AD0BA
:104230002B482C4B2C490078097818702B4B19709F
:1042400081E7BAF1000F14BFF420DC202849097877
:1042500000297FF49FAE86457FF49CAE43F0400377
:104260009370137863F07F0313707B7898067FF563
:1042700091AEFF22DFF880901E4B1A8599F800302E
:1042800043F0010389F8003086E6537843F00103D8
:10429000537000293FF4BFAEFF22164B40F00200DE
:1042A00089F800001A8502E0FF22124B1A85FF20D0
:1042B00087E61B0903EB83035B000B70002B3FF4C5
:1042C00042AF3B7B074809491D0903F00F03057006
:1042D0000B7038E7FDF76AFB15E700BF30370120A8
:1042E000363701204C370120313701204B37012070
:1042F0003437012044720020383701202DE9F04F77
:10430000012400258BB002298E46CDE90544CDE974
:104310000745099440F3C781BEF1040F0146AEF191
:10432000020340F3C381AEF1050E821C2EF0010E94
:1043300084469644A946A0462746CDE90055CDE9D6
:10434000023100784A78B24EDFF8D0B2DFF8D0A25E
:1043500014E0534500F00C8100F3E180AD498B423D
:104360003ED001F580118B4203D1012308F10108F1
:1043700001930CF102039E453AD09C4600EB0221CA
:104380009CF80200134601EB0041B14200F00681A7
:1043900000F38880514500F0F38000F39C809D4A33
:1043A000914200F0D18002F58012914240F0A2804B
:1043B00001219CF8032003EB002308F1010803EB23
:1043C00002430191B342C4DD5B45CED000F3A2802D
:1043D00091498B4200F0B48001F500218B42C8D195
:1043E000012300930CF102039E4504F10104C4D1A2
:1043F000DDE902310DB1CDF82090009A02B10794A9
:10440000019A0AB1CDF81880C1F1020202EB0C004A
:1044100001EB000C0A5C9CF801E09CF802107C4C5B
:1044200002EB0E2202EB0142A24200F0518140F366
:10443000BE807A4CA24200F0018100F3F780A4F51F
:10444000C014A24200F0298104F50024A24240F0E9
:104450004E81079E421C01369342069C079640F30C
:10446000F5809CF803300EEB012101EB0341684B12
:10447000089D994200F03E81654B994200F3B98056
:10448000674B994200F02F8100F30281A3F50013DE
:10449000994200F0BB8003F58013994240F0D78029
:1044A0000134D4E0594583D02BDC5B4A914255D08E
:1044B00002F50022914202D10122013400929CF8BF
:1044C000032003EB002303EB0243B3427FF47AAFF4
:1044D000013709974DE7534A91423FD002F5002238
:1044E000914207D10125013708F1010809F10109BD
:1044F000099701959CF8032003EB002303EB02438B
:1045000060E7494A91421FD002F5801291423FF480
:104510004FAFD4E744498B427FF423AF60E7414972
:104520008B420DD001F500218B427FF422AF012593
:10453000013708F1010809F101090997019518E708
:10454000012509F1010914E701219CF8032003EB7F
:104550000023013403EB0243009133E79CF803206E
:1045600003EB0023012509F1010903EB024329E7CD
:1045700001250137013409F1010909970095F8E691
:1045800001259CF80320013703EB0023013409F1D6
:1045900001090997009503EB024313E79CF80320F8
:1045A000013703EB0023099703EB02430AE71C4C96
:1045B000A24200F083805EDD1A4CA2426DD004F569
:1045C0000024A24260D1069C089D013701340135C8
:1045D000079E099706940895421C934237DD9CF884
:1045E00003300EEB012101EB0341094B99427FF7A8
:1045F00047AF0A4B99423FF453AF5ADCA3F5C013BF
:10460000994248D003F50023994220D101361EE09B
:1046100032FF770032004000320078003200900014
:1046200032006000320068003200A000324CA2422A
:104630003FF40FAF04F58014A24258D1069C079EA8
:1046400001340694421C93423FF70BAF089D022CA5
:10465000DABF022400200220B4423346ACBF234616
:104660000320AB42ACBF1D460420BD42B8BF0520AD
:104670000BB0BDE8F08FA4F50014A2423FF4E9AE00
:1046800004F58014A242D9D0DDE90646089DA3E7CF
:104690001A4B99421FD10135D9E7089DDDE906463D
:1046A0000135089598E726462746D0E7284627464D
:1046B000AEE6114B99427FF4EEAEA7E7079E089D48
:1046C000013701360135069C09970796089583E75F
:1046D00001370997D8E703F500239942B7D1013490
:1046E00001350137B3E7013601350137AFE7DDE9C1
:1046F0000646A7E70137AAE73200A00032006800AB
:1047000003462DE9F04FC94883B0019317F00CFA26
:1047100015F07EFE002145F2226002F057FA0023D8
:10472000C349C4480B60C44903600B60C349C44A11
:104730000B60C449C4480B70C449C54D0B70C549D2
:10474000C0E900330B702B7013780BB90123137081
:10475000C14AC2491368DFF848B3E32BDCBFE42346
:1047600013604EF657130A68BD4C9A42DCBF4EF6F2
:1047700058130B60A0210022BA4B9BF80000D961AE
:104780002178B94E83F82A20022900F0100283F81C
:104790002B20326840F2B78302232370A2F1080372
:1047A000F82B00F297810821B04F3B688B4202DB67
:1047B000082BD8BF194601235B009342FCDB012282
:1047C000AB4C3360013B237052008A42FCDB3A6001
:1047D0000022A849DFF8CCA20B78AAF8002003F049
:1047E00003030B70A4490B7803F003030B7000283C
:1047F00040F0F9834FF4804017F09EF9DFF8A8826B
:104800004FF48042FF219D4CC8F8000028F062FC64
:10481000D8F800302A78DFF8949244F82230013238
:10482000C9E90033C9E90233C9E90433C9E90633E8
:10483000C9E90833C9E90A33C9E90C33C9E90E33B8
:10484000C9E91033C9E91233C9E91433C9E9163388
:10485000C9E91833C9E91A332A70C9E91C33C9E90F
:104860001E33C9E92033C9E92233C9E92433C9E930
:104870002633C9E92833C9E92A33C9E92C33C9E900
:104880002E33C9E93033C9E93233C9E93433C9E9D0
:104890003633C9E93833C9E93A33C9E93C33C9E9A0
:1048A0003E33C9E94033C9E94233C9E94433C9E970
:1048B0004633C9E94833C9E94A33C9E94C33C9E940
:1048C0004E33C9E95033C9E95233C9E95433C9E910
:1048D0005633C9E95833C9E95A33C9E95C33C9E9E0
:1048E0005E33C9E96033C9E96233C9E96433C9E9B0
:1048F0006633C9E96833C9E96A33C9E96C33C9E980
:104900006E33C9E97033C9E97233C9E97433C9E94F
:104910007633C9E97833C9E97A33C9E97C33C9E91F
:104920007E339BF80030002B40F0558338688003BD
:1049300017F002F93A68404B92030021186028F002
:10494000C9FB3D4A2B78126844F8232001332B70B1
:104950009BF80030002B40F037833068484F8003CD
:1049600017F0EAF83268FF219203386028F0B2FBB2
:104970002B783A6844F8232001332B709BF80030E1
:10498000002B40F0CF82364B1B78012B00F0648463
:10499000022B00F04984002B00F07683394BC9F8D4
:1049A000A83103F50053C9F8AC31374BC9F8E831E9
:1049B00003F50053C9F8EC31344A354B07CA03C339
:1049C0001A80019A22B11146A3F1080028F052FE84
:1049D000304E00212E48FDF705FF30789AF8002070
:1049E000062802F101034FEA433140F26482B1F537
:1049F000004F09DD144B1868FFF780FC9BF800306E
:104A00003070002B40F07783234B01211868FDF7AD
:104A1000E9FE224B9AF8010093F800C0421CBCF159
:104A2000060F4FEA423140F2218241E028DE0210B7
:104A3000187B0020207B0020AC80002024800020F8
:104A40006C4C002043370120947E00204437012025
:104A50003237012035370120644C0020684C00209B
:104A6000604C002044720020584C0020544C002020
:104A70003F3701205F4C00205E4C002098730020DF
:104A80008C7E00206830051068F0041044DF0210AE
:104A9000787200205D4C0020504C00205C4C0020BF
:104AA0006D4C0020A47E00200C7B0020605500206F
:104AB000B1F5004F15DDAF4B5868FFF71FFCAE4B4B
:104AC0009BF800201870002A40F025833278062ACF
:104AD0000BD1DCE10822114666E6B1F5004F00F388
:104AE0002D833278062A00F0CC81A44A12785AB17C
:104AF000D8F80020D9F88810914200F0C583D9F881
:104B000008118A4200F0DD839BF80030002B40F052
:104B10007282002000249A4AD9F800103B68116084
:104B2000D9F80410C9F8D8315160D9F8081091604B
:104B3000D9F80C10D160D9F810101161D9F81410FF
:104B40005161D9F818109161D9F81C10D1618D4AC2
:104B50008D4914608D4A14608D4A14608D4A11602D
:104B600003F54042C9F8C02103F56042C9F8C421E9
:104B700003F50042C9F8C82103F52042C9F8CC2149
:104B800003F58042C9F8D02103F5C04203F5005374
:104B9000C9F8D421C9F8DC31002840F028827E4CC5
:104BA0000027A0467D4E7E4D98F8022098F801100F
:104BB00018F8030B3B46040444EA0124144345F867
:104BC000047F46F8044F013715F0B4FB102FEBD1EA
:104BD0004FF00008734B4146A3F80080724B7348B6
:104BE000A3F80080724B734FA3F80080724B734D93
:104BF000A3F80080724BAA46A3F80080714B4FF0D7
:104C0000FF39A3F8008000F0BDFB06216E4801F0DB
:104C10007FFA06216D480BF0C3FE0121634800F0C6
:104C20007BFE0121684801F093FA012167480BF0EF
:104C3000E7FE42464146664800F026FF654800F020
:104C400043FFBC46644BDFF820E283F80080614BF1
:104C5000012683F8048083F80680604B604C83F85B
:104C60000080604B83F80080BEE80F00ACE80F00C6
:104C7000BEE80F00ACE80F00BEE80F00ACE80F0084
:104C80009EE80700584BACE803004AF8043B574B3A
:104C90008CF8002083F80080554B564AA3F800801A
:104CA000554BC5F8048083F80080544BC7F8398011
:104CB00083F80080524BCAE9018883F80080514B89
:104CC000C4E90099C3F800804F4BC4E90299C3F8C6
:104CD00000904E4BC7F83C80C3F800904C4B4D48B9
:104CE000C3F800904C4BC3F800904C4B83F8008005
:104CF0004B4B83F800804B4B83F800804A4B1B687A
:104D000013604A4A13604A4A13604A4A13604A4A87
:104D100013604A4A13604A4B83F80080494B83F87A
:104D20000090494B83F80080484B1E70484B1E7022
:104D3000484B83F80080484BA3F80080474BC3F8EA
:104D40000080474B83F800800C4B1B78B34284BF34
:104D500004236B7012F0BAFF9BF80030002B40F078
:104D60006F812C4813F0B4F83E4803B0BDE8F04F13
:104D700016F0DABE947E00205C4C0020604C0020CF
:104D800068570020205500200302010088570020AA
:104D900060570020907E0020ACEF0210487E00207B
:104DA000B0800020387D0020E87D0020F87D0020C4
:104DB000E47D002058800020447D00209880002061
:104DC000407D002040720020E07E0020487D0020D1
:104DD00010800020EC7D00203E3701203737012075
:104DE000247B0020423701209F006C0038370120CF
:104DF000DC7E0020887300204037012041370120ED
:104E00003B3701201C7B0020508000208C73002049
:104E10009C77002044720020947300204B370120BF
:104E20004C37012031370120AC80002098770020DA
:104E300090730020488000204C800020A880002033
:104E40003637012048370120453701203C37012003
:104E5000493701204A3701201E37012028800020D1
:104E600047370120ACE0021068700510BCF1010F5B
:104E70003FF433AE3278062A03D0BCF1060F7FF43C
:104E800034AE9BF8002012B1BD4816F04DFE4FF431
:104E9000804016F051FEBB4B4FF48042FF2118605A
:104EA00028F018F9B74B2A781968B74B44F8221044
:104EB00001322A7019E601287FF4A6ADB1F5004F42
:104EC0007FF7A2AD4FF0000CB04BB1491B6881F8E1
:104ED00000C002F0010C501E03EB4C3CC9F88CC022
:104EE00002EA000C03EB4C30C9F88830CA7003EBBF
:104EF000423302F0010281F802C0C9F89000C9F8FB
:104F000094304A7080E500297FF448AC131FFC2BD5
:104F100040F2B7809F4F3968012900F3C580022114
:104F2000042248E49C4E9D4816F0FEFD9C4B3278CE
:104F300053F8220016F0F8FD32789BF80030012A71
:104F400000F0C781022A00F0B380A2B9002B00F064
:104F50009B80944816F0E8FD934B03F50052C9E995
:104F6000003203F5804203F5C043C9F80C309BF8CA
:104F70000030C9F80820002B3FF410AD8B4816F024
:104F8000D3FD8B4B03F50052C9E96A329BF8003020
:104F9000002B3FF40AAD874816F0C6FD9BF80030A1
:104FA000002B3FF402AD844816F0BEFD834B03F5A1
:104FB0000052C9E97A329BF80030002B3FF4FCAC78
:104FC0007F4816F0B1FDF7E4306816F0AFFD7D487C
:104FD00016F0AAFDC1E43868000116F0A7FD7A4872
:104FE00016F0A2FDA2E4794816F09EFD02E478488E
:104FF00016F09AFDD3E5774816F096FD764B1868C3
:1050000016F092FD9BF80030002B3FF482AD734800
:1050100016F08AFD724B734C1B7854F8230016F07F
:1050200083FD714816F080FD704B1B7854F8230007
:1050300016F07AFD6E4816F077FD9BF8000069E5E2
:105040006C4C206816F072FD6B4816F06DFD6B4BD2
:105050001D46186816F06AFD694816F065FD23685C
:10506000286890FBF3F016F061FD664816F05CFDD1
:105070009BF80030002B3FF474AE634816F054FDEB
:105080006FE60221FFF790BB474B03F50052C9F8CA
:105090000030C9F8042003F5804203F5C043C9F885
:1050A0000820C9F80C3079E408293FF738AF37E712
:1050B000002B00F0B980554816F036FD544B03F52F
:1050C0000052C9E900329BF8002003F5804103F546
:1050D000C043C9F80810C9F80C30002A00F0B380AA
:1050E0004C4816F021FD4C4B03F50052C9E96832DB
:1050F0009BF800303FE7494816F016FD484B3278E0
:1051000053F8220016F010FD3378012B7FF47CACAD
:105110009AF80020D6E6434816F006FD1A4B404A9E
:10512000197852F8210016F0FFFC174B93F800C0D5
:10513000BCF1010F7FF49EAE9AF801004FF0000E13
:10514000124A1349526881F804E000F0010E02EBA4
:105150004E3E00F1FF3CC9F80CE100EA0C0EC9F824
:105160000821C87181F806E002EB4E3E02EB4032A6
:1051700000F00100C9F810E1C9F814214871B0E449
:1051800080DF0210248000205C4C0020947E0020F0
:105190009C7E0020544C0020604C002080DE0210D9
:1051A000ECEF021094DE02106870041004DF0210AD
:1051B000683005101CDF021034DF021068F00410A4
:1051C00040DF02106CDE02105CDE021038DE0210DE
:1051D00028E00210C0DF0210444C0020D0DF021093
:1051E0005F4C0020DCEF0210ECDF02105E4C002070
:1051F00008E00210644C002058E00210684C0020C7
:1052000070E0021088E0021094E00210D4DE021078
:1052100068300310ECDE021068F0021050DF02105C
:10522000EC4B002068DF02104C4B03F50052C9F82C
:105230000030C9F8042003F5804203F5C043C9F8E3
:105240000820C9F80C30464BC9F8A03103F50053CB
:10525000C9F8A431FFF7A2BB424B03F50052C9F8CD
:105260000030C9F8042003F5804203F5C043C9F8B3
:105270000820C9F80C303C4BC9F8A03103F50053A5
:10528000C9F8A431FFF78ABBD9F8A831994241D0B7
:1052900001240025347029463448FDF7A3FA00287C
:1052A0003AD1D8F80030D9F888209A4232D0D9F8CB
:1052B000082193427FF428AC01212D48FDF792FA92
:1052C00022E4D9F8A8118A42F6D0012502241D70E3
:1052D000E1E7002BC0D0274816F026FC214B03F550
:1052E0000052C9E900329BF8002003F5804103F524
:1052F000C043C9F80810C9F80C30002ABBD01E48BA
:1053000016F012FC184B03F50052C9E968329BF8FD
:10531000003030E60021D0E70020184A1AF80530A6
:1053200052F82510164A09EBC41402F8250002EBC6
:10533000850203F0010501EB4535581EE56003EADF
:105340000005A160D370957001EB453501EB433149
:1053500003F00103256161615370A2E76830031017
:1053600068F0021068F0031068B00310A8DF0210A4
:10537000B4DF0210A8DE0210BCDE0210947E002012
:105380009C7E0020F8B504460D460026174F3022BB
:105390000021103027F09EFE0FCFC4E91266A260F4
:1053A000E360206061602846314684F85260A4F8CA
:1053B00050602564A4F8446084F8466001F028FB3E
:1053C0003146681C01F024FB3146A81C01F020FB8B
:1053D000E81C022101F01CFB281D022101F018FB32
:1053E000681D0221BDE8F84001F012BBA87005104D
:1053F00001F00F0180F84610704700BFF8B590F833
:1054000046300F2B30D89A1F0446092A00F2378104
:10541000DFE802F03E5C0505052D2D2B2B2BA3F1BB
:105420000802C806E154D3B240F1BF8011F0040F66
:105430000CBFFF220022092504EB83008262426335
:10544000C1F30011E21882F85010E17994F8442079
:105450009D4025EA01051543EDB284F8445094F8C7
:1054600045300BB9002D5CD1F8BDE154F8BD4FF4C7
:105470007A70E1540021B4F80B30934A01331B01D8
:1054800000FB03F3A2FB0323DB0BE164A364F8BD81
:10549000E379A171DD4315F0380FE5D08B4A01F0B7
:1054A0001F010131B2FBF1F2180758BFE261D906C2
:1054B00058BF22629B0694F8443005F0380545EA4F
:1054C000030558BF626284F84450C8E7E27994F853
:1054D00044504A4002F03F031D4384F84450E171B8
:1054E000002BBCD0D7074FEA53000DD5CE0769D4A7
:1054F00062782678120202F470623244734E0132EE
:10550000B6FBF2F2226140B1C0074FEA930625D5FF
:105510008A0773D50022626106BB94F84530002BE0
:10552000A2D1EF074FEA65064ED4F6074FEAA5076A
:1055300052D4F8074FEAE50657D4F1074FEA25178A
:1055400000F18280FA074FEA651500F18780EB07CA
:1055500000F18E80002384F84430F8BDF7074FEA4D
:10556000D30005D54E0754D50022A2610028D4D01F
:10557000C0074FEA13124FEA111605D5090753D594
:105580000021E161002AC8D0D20705D5F70753D51D
:1055900000225B092262C0D0B6070BD5002394F825
:1055A00045206362002ABCD05EE701F00F0202EBE7
:1055B000021240E7A279454B02F01F020132B3FB11
:1055C000F2F3ECE700229DE7A26A2169206C01F06A
:1055D000A1F8002EA9D1BDE7206CE26A6169013013
:1055E00001F098F8002FA4D1B4E7206C226BA169D8
:1055F000023001F08FF8002E9FD1ABE7E278A0785F
:10560000120202F47062024430480132B0FBF2F23E
:1056100081E762792679120202F4706232442B4EDD
:105620000132B6FBF2F2A0E7A079284900F01F0092
:105630000130B1FBF0F1A4E7A179244A01F01F0188
:105640000131B2FBF1F2A4E7206C626BE169033037
:1056500001F060F8002F7FF475AF7BE7206CA26B40
:10566000216A043001F056F8002D7FF470AF71E725
:10567000D4E90F20616A053001F04CF86AE7E15483
:10568000E27959080A41D5073FF5EEAE03F0FE0373
:10569000E2185278E05C130203F4706303440B4A8F
:1056A0000133B2FBF3F20123081D44F8202094F8E3
:1056B00044508B401D4394F84530EDB284F844507B
:1056C000002B3FF42EAFCFE677C9FD4AF5B40100B9
:1056D00090F84630C05C7047826C002A6BD0F8B5F9
:1056E000C36C044619448A4225DC91FBF2F50E0294
:1056F00096FBF2F6002302FB151100F1280C04F1D1
:10570000340E4F30E16410F8012F5AB310F8481CE2
:10571000C90627D5617BDCF8005001F00F01043980
:105720000B2900F2C680DFE801F00808080853C41E
:1057300065747D478347C164F8BD3544FF2D40F350
:10574000C3800022CCF80020CEF800200022027096
:105750000922E57994F844109A4022EA05020A43A6
:1057600084F844200133032B0CF1040C0EF1040ED9
:10577000C9D194F84530002BDED194F84450002D67
:10578000DAD0EF074FEA650660D4F6074FEAA507BF
:1057900064D4F8074FEAE50669D4F1074FEA251704
:1057A0006ED4FA074FEA651573D4EB077AD4002359
:1057B00084F84430F8BD70473544FF2D2A46A8BF11
:1057C000FF22FF2DCCF80020CEF80020C0D1BDE78D
:1057D000AD1B48BFFF250922CCF80050CEF8005081
:1057E000E1799A4022EA010294F844100A4384F8CD
:1057F0004420B7E7022A00F08280AD1B25EAE5725B
:10580000002DCCF80020CEF80020A1DC022202708E
:105810009EE7AD1B60D4FF2DCCF80050CEF80050B1
:1058200096D193E73544B5F5807FA8BF0025D2E730
:10583000022A57D03544FF2D2A46A8BFFF22FE2D4D
:10584000CCF80020CEF8002082DDDFE7A26A2169D3
:10585000206C00F05FFF002E97D1A8E7206CE26A71
:105860006169013000F056FF002F92D19FE7206C54
:10587000226BA169023000F04DFF002E8DD196E71A
:10588000206C626BE169033000F044FF002F88D187
:105890008DE7206CA26B216A043000F03BFF002DE5
:1058A00083D184E7D4E90F20616A053000F032FF2C
:1058B0007DE7AD1B25EAE572002DCCF80020CEF87F
:1058C00000203FF745AF41E7CCF80050CEF800503C
:1058D000002D7FF43DAF39E7FF22CCF80020CEF851
:1058E000002033E7AD1B25EAE572002DCCF800203F
:1058F000CEF800203FF72CAF0122027028E7354494
:10590000FF2D2A46A8BFFF22FE2DCCF80020CEF89E
:1059100000207FF71DAFEFE7F8B50B060D460446F4
:105920002AD4022D18BF84F8455094F84450ADB1E4
:10593000EF074FEA650645D4F6074FEAA5074CD4B2
:10594000F8074FEAE50654D4F1074FEA25175CD46F
:10595000FA074FEA651564D4EB0703D4002384F8F3
:105960004430F8BDD4E90F20616A053000F0D2FE62
:10597000002384F84430F8BDC36BD0E90D215AB13F
:10598000C06948B1002955D1002B5BD01146626A2D
:10599000002A59D10B4608E021B1226A12B1002B2E
:1059A000F5D1F7E75BB1626A4AB12E49023381FB58
:1059B00003214FF48E70A1EBE37100F0F1FF05F0CD
:1059C0007F05AEE7A26A2169206C00F0A3FE002EDD
:1059D000C4D0F6074FEAA507B2D5206CE26A616928
:1059E000013000F097FE002FB8D0F8074FEAE50627
:1059F000AAD5206C226BA169023000F08BFE002E2C
:105A0000ACD0F1074FEA2517A2D5206C626BE16993
:105A1000033000F07FFE002FA0D0FA074FEA651593
:105A20009AD5206CA26B216A043000F073FE002D21
:105A300092D193E7206A58B10A440BB1616A61B907
:105A4000002ABCD01346B0E7CA18002AB7D0F9E73D
:105A5000002BF7D0616A0029F4D01A44002AAED096
:105A6000F0E700BF56555555012801D90020704771
:105A7000024B53F82000C043C00F7047B8720510A6
:105A800000207047002070474FF0FF3310B40C4CDB
:105A90008360C0F8014029B1C1604AB15DF8044B90
:105AA00002617047074B1B685968C160002AF5D135
:105AB000044B5DF8044B1B689A680261704700BF95
:105AC0000F000100C453002000234FF01B4203814C
:105AD00002604360704700BF0229034610D90329C2
