:020000041000EA
:10000000002008205D0100101B0100101D010010E0
:100010001101001011010010110100101101001058
:100020001901001019010010190100101F01001022
:10003000110100101901001021010010230100100E
:100040001101001011010010110100101101001028
:100050001101001011010010110100101101001018
:100060001101001011010010110100101101001008
:1000700011010010110100101101001011010010F8
:1000800011010010110100101101001011010010E8
:1000900011010010110100101101001011010010D8
:1000A00011010010110100101101001011010010C8
:1000B00011010010110100101101001011010010B8
:1000C00011010010110100101101001011010010A8
:1000D0001101001011010010110100101101001098
:1000E0001101001011010010110100101101001088
:1000F0001101001011010010110100101101001078
:100100001101001011010010110100101101001067
:10011000EFF30580103800BE00BE00BE00BE00BE7A
:1001200000BE00BEF2EB887180D30610B0D306107B
:10013000A001001090A31AE7D3DEFFFF42012110B7
:10014000FF01000020270700793512AB4FF00000B7
:100150001E49086006C881F3088810474FF05040D8
:10016000006810B14FF00000F2E70DA40ECC00299A
:1001700002D000F012F8F9E71549164A002000E015
:1001800001C19142FCD11449884714498847144958
:10019000884700BEFDE701C901C29A42FBD3704700
:1001A000B0D30610100100208C5500202C28071019
:1001B000000008202C0008205828071000100820F4
:1001C00000100820000000007047000008ED00E06B
:1001D0008C550020D4370120697C02108DA90110B4
:1001E000617C0210F8B500BF08B5034B1BB1034991
:1001F0000348AFF3008008BD0000000000FD0020B0
:10020000A8E40210F8B50E4668BB1D4A1D4992F9D4
:10021000093092F91240002BACBF12230823A3EB44
:1002200024130B60184B1B78B3B9184A44F303042A
:10023000174DC4F10807136031463A4628462DF0A1
:10024000D9FA14F1080205D0C2F588703146284465
:100250002DF0D0FAE819F8BD127A92060CD40B4AA8
:1002600052F82330E2E7074B1B681844E32805DC0B
:10027000034A92F91240D5E70023D6E70020F8BDE3
:10028000C8800020E04C0020A137012024810020FC
:10029000E8FB00202DE9F04FB24B8B465A7883B033
:1002A000960740F1D68002224FF0100C0092F02702
:1002B0006FF00F060022E146DB7D002A00EB030110
:1002C0004FF00003A84A18BF4FF0F80E156808BF9A
:1002D0004FF0F00E2C1F9846C9B27C350FE0A0F508
:1002E00080706044884208F1010A06DB5FFA8AF8F0
:1002F000B8F1040F43F0010310D0AC420BD02246FA
:1003000014F8040F5B00D02805D08645E7DB88424F
:10031000E7DBAC42F3D1002B00F08B80B9F1080F82
:1003200000F0B4800139DFF848A20191D80740F10C
:10033000838092F90750D479002D50797FDB14F037
:100340000F0471D01AF824E0947915790199E4002A
:10035000BD4204F4FC64C8BFA5F580750C44641B61
:10036000824D0028D5F800800BEB000508EB04094E
:100370007ADBB84240F308816FF480710844009939
:10038000604401FA00F0013880F47F4080F0FF0003
:1003900018F8048099F8104044EA0824204010F42A
:1003A0007F4F1FD0040448BF85F800E0410448BFD8
:1003B00085F801E0840448BF85F802E0C10448BF25
:1003C00085F803E0040548BF85F804E0410548BF0F
:1003D00085F805E0840548BF85F806E0C10548BFFB
:1003E00085F807E0C4B2FCB1040648BF85F808E010
:1003F000410648BF85F809E0840648BF85F80AE051
:10040000C10648BF85F80BE0040748BF85F80CE03B
:10041000410748BF85F80DE0840748BF85F80EE026
:10042000C10748BF85F80FE05B08A2F104027FF422
:100430007DAF03B0BDE8F08F5B08043A76E7203863
:10044000B0423FF77CAF5B08A2F104027FF46EAFCD
:10045000EFE74FF400724FF0080C0092F8276FF0AE
:1004600007060122E14627E718F8048099F81040B2
:1004700044EA0824C0F100084FF4803040FA08F044
:100480000138204010F47F4F90D1ABE7DFF8DC80DB
:10049000DFF8DCA001F1FF39DD0754D592F9074000
:1004A000D179002C507951DB11F00F0144D092F832
:1004B00004E0774552DB94791AF82150D8F80010FF
:1004C00009EBC4040028A4EB0E0401910BEB000E11
:1004D00050DB87425BDA6FF4807108440099604416
:1004E00001FA00F0013880F47F4080F0FF000199AC
:1004F000095D10EA01211FD00C0401D58EF80050CF
:10050000480401D58EF801508C0401D58EF80250B4
:10051000C80401D58EF803500C0501D58EF804509F
:10052000480501D58EF805508C0501D58EF806508A
:10053000C80501D58EF807505B08A2F104023FF40C
:1005400078AFDD07AAD45B08043AA5E720388642D5
:10055000AADB5B08A2F10402F3D16AE7AEF5807E64
:10056000A9E700BFC8800020BC800020B880002020
:10057000248100200C5D4FF480314042014101395B
:1005800011EA0421BCD1D7E74FF6FF7000E74FF620
:10059000FF70ACE72DE9F84F454B464E1B780546FA
:1005A00016F823402146FFF72DFE00286DD0424B60
:1005B0005A7851066BD54FF0000A404A64F3070A97
:1005C00064F30F2A64F3174A127864F31F6A8146B2
:1005D0000472C0F800A0C0F804A0002A5ED0384A17
:1005E000116800295AD0DA7DEB082A4402F007028C
:1005F00001EB020E28214FF0FF3213FB0123314A99
:1006000009F1FF08127816F822102F4A10681844D2
:1006100009F10F0310F801CF1EF83C201EF93C50E1
:1006200034EA250B28BF8B4612F0400F0CBF27463B
:100630000F4612F0200F0CBF26460E4612F0100F88
:100640000CBF25460D4612F0080F0CBFA4468C4681
:10065000520703F806BC03F8057C03F8046C03F8A2
:10066000035C03F802CC1CD503F8011C0633984543
:10067000D0D14FF0000364F3070364F30F2389F82C
:10068000FF40C9F8F9A0A9F8FD30BDE8F88F214670
:10069000BDE8F84F4FF480722DF0ACB80B4A1168EA
:1006A000A1E703F8014C06339845B3D1E1E700BF59
:1006B000A137012024810020C8800020B737012005
:1006C000887B0020A637012000740020F8730020EA
:1006D0002DE9F04F4D4E4E4C337885B014F8231071
:1006E0000546FFF78FFD002874D04A4B5B785B0608
:1006F00073D5484B0146DB7DE818474BC0B21B78E9
:10070000002B74D0454B1A68002A70D0444BDFF898
:1007100018B11D68830003F47873013B05EB030EE9
:1007200000F0070302EB030C01F58472CDE901210F
:1007300001F1080303901EF8011FDBF80020C80830
:10074000125C1CF93150160902F00F021CF831003E
:1007500014F8222014F8261032EA250928BF894609
:1007600010F0400F0CBF9046884610F0200F0CBFD1
:1007700017460F4610F0100F0CBF16460E4610F02D
:10078000080F0CBF15460D4610F0040F0CBF924623
:100790008A4610F0020F03F8078C0CBF904688467B
:1007A000C00703F803AC03F8089C03F8067C03F8C1
:1007B000056C03F8045C03F8028C1BD5019A03F85E
:1007C000011C08339A42B6D1124BDDE902101B7AA4
:1007D0009B0716D505B0BDE8F08F4FF480723378D3
:1007E00014F8231005B0BDE8F04F2DF003B80D4B01
:1007F0001A688BE703F8012C019A08339A429AD1C0
:10080000E2E705B0BDE8F04FFFF744BDA137012096
:1008100024810020C8800020B7370120887B002079
:1008200000740020F8730020087800202DE9F04FB4
:10083000504E514C337885B014F823100546FFF71D
:10084000E1FC00287CD04D4B5B785F067BD50146F0
:100850004A4BDFF83C81DB7D494FE818494BC0B279
:100860001A68830003F47873013B02EB030C01F573
:1008700084724FEA401ECDE9012100F007030EF417
:10088000C05E414E414D4EEA030E039001F1080354
:100890001CF8019FD8F8002039680EEBC90909EA55
:1008A00002028A5C3068D5F800A0110909EA000943
:1008B00002F00F021AF8090014F821101AF9099031
:1008C00014F8222032EA290A28BF8A4610F0400F85
:1008D0000CBF9146894610F0200F0CBF93468B4603
:1008E00010F0100F03F808AC0CBF92468A4610F0C7
:1008F000080F03F8079C0CBF9146894610F0040FBF
:1009000003F806BC0CBF93468B4610F0020F03F8A9
:10091000049C0CBF91468946C00703F803BC03F84A
:1009200005AC03F8029C18D5019A03F8011C0833A2
:100930009A42ADD1114BDDE902101B7A9B0713D50A
:1009400005B0BDE8F08F4FF48072337814F82310AF
:1009500005B0BDE8F04F2CF04DBF03F8012C019A13
:1009600008339A4294D1E5E705B0BDE8F04FFFF7B0
:1009700091BC00BFA137012024810020C880002045
:100980000878002000740020FC730020F873002019
:100990000C7800202DE9F843DFF8CC802E4C98F835
:1009A0000030054614F82310FFF72CFC002841D036
:1009B0002A4F7B785A063FD50646B446FB7D06F59E
:1009C0008079E818264B5FFA80F81D68254BC0F344
:1009D0008200054418684FEA880303F47873013BEA
:1009E00018440022134610F8011F0CF1080C15F8EA
:1009F00031E0E1454FEA1E110EF00F0E14F8211000
:100A000014F82EE061F307026EF3070361F30F227F
:100A10006EF30F2361F317426EF3174361F31F6206
:100A20006EF31F634CF8082C4CF8043CD9D13B7A88
:100A30009B070BD5BDE8F88398F800304FF480721F
:100A400014F82310BDE8F8432CF0D4BE31464046DC
:100A5000BDE8F843FFF71EBC24810020C8800020B9
:100A6000F873002000740020A13701202DE9F04F19
:100A7000584F594D3B7883B015F8236004463146F2
:100A8000FFF7C0FB00287FD0544A53785B067ED521
:100A90000023534966F3070366F30F2366F31743F6
:100AA000097866F31F638646067203604360002977
:100AB00075D04C4B1968002971D0D37D0022234496
:100AC00003F0070301EB030A474B48491B68096819
:100AD0004748E40804EB840401EA440103EA0413F0
:100AE0000468013B0C444349DFF818B10E68CDF8A7
:100AF00004E01E4413460EF10C01580708BF14F819
:100B0000012B10065CD49BF8000015F82080387883
:100B100015F820C016F8010F52001AF8300003F142
:100B2000010E3F2894BFE146C14610F0300F01F896
:100B3000039C0CBFE146C14610F00C0FD2B201F885
:100B4000029C2FD05FFA8EF3502B01F8018C01F13B
:100B50000301D2D100224FF000013B78DDF804E020
:100B600015F8233063F3070263F30F2263F30701E1
:100B700063F3174263F30F2163F31F628EF8FF30B4
:100B8000AEF8FD10CEF8F92003B0BDE8F08F4FF4B9
:100B90008072314603B0BDE8F04F2CF02BBE164BEF
:100BA00019688AE75FFA8EF3502B01F801CC01F146
:100BB0000301CFD0580708BF14F8012B1006A2D5A7
:100BC0000E4890F800C00E4815F82C80007815F8F3
:100BD00020C09FE7A137012024810020C880002089
:100BE000B7370120887B0020047400200C78002097
:100BF0000878002000740020F8730020BC37012022
:100C0000BB370120A63701202DE9F04FDFF8B08374
:100C1000002298F80130DFF8ACA39D074BBF0023FA
:100C200001234FF010094FF00809DAF80060002B9B
:100C30004F46A6F1040314BF4FF0F80E4FF0F00E2C
:100C4000154698F817C083B07C360EE0A4F5807482
:100C50004C44A04205F1010B05DC5FFA8BF5082D31
:100C600042F0010213D0B3420ED013F804BF520079
:100C7000ABEB0C04BBF1D80FE4B205D07445E5DC56
:100C80008442E5D3B342F0D1002A00F09280082FCD
:100C900000F0DE804FF0000CDFF820B30191D407A4
:100CA00040F18A8098F817501E78013D0544DAF823
:100CB0000040AD1BEDB21E1B2C4404EB8604A4F5D2
:100CC0000074247804F040064CEA060C14F00F0679
:100CD00068D064B2E7439C7893F80190E400DBF8B5
:100CE00000E00199FF0F04F4FC642C4409EB471960
:100CF0001CF0200F1EF8047001EB09051EF904100A
:100D0000A6445CD00029C0F29980790602D56C789F
:100D100034436C70BC0602D5AC783443AC70F90631
:100D200002D5EC783443EC703C0702D52C7934437F
:100D30002C71790702D56C7934436C71BC0702D5EC
:100D4000AC793443AC71F90702D5EC793443EC71DA
:100D50009EF910709EF81040002FC0F22A8167069D
:100D600002D56F7A37436F72A10602D5AF7A374347
:100D7000AF72E70602D5EF7A3743EF72210702D54B
:100D80002F7B37432F73670702D56F7B37436F7312
:100D9000A10702D5AF7B3743AF73E70702D5EC7BE2
:100DA0003443EC7352084FEA5C0CA3F104037FF464
:100DB00076AF03B0BDE8F08F5208043B6FE700291F
:100DC000B8BF01994FEA5C0CB8BF01F809607C0616
:100DD00048BF6E70B90648BFAE70FC0648BFEE70E3
:100DE000390748BF2E717C0748BF6E71B90748BFED
:100DF000AE71FC0748BFEE719EF910709EF810406E
:100E0000002FB8BF2E72610648BF6E72A70648BF9A
:100E1000AE72E10648BFEE72270748BF2E73610726
:100E200048BF6E73A70748BFAE73E10748BFEE73B4
:100E30005208A3F104037FF432AFBAE7019911F825
:100E40000940344301F8094079067FF563AF5EE756
:100E500000265A4FD4075DD598F817401D78013CFD
:100E60000444641BDAF80050E4B2A3EB050C2544FB
:100E700005EB8C05A5F500752D7805F0400C46EACC
:100E80000C0615F00F0C3CD06DB2ED4393F802E068
:100E900093F80190D7F800B0ED0F04EBCE0E09EBFC
:100EA000451916F0200F1BF80E4001EB09051BF940
:100EB0000EE032D1BEF1000F01DA01F809C014F0E2
:100EC000400F01D085F801C014F0200F01D085F843
:100ED00002C014F0100F01D085F803C014F0080F01
:100EE00001D085F804C014F0040F01D085F805C0C6
:100EF00014F0020F01D085F806C0E40701D585F88B
:100F000007C052084FEA5606A3F104033FF451AF5D
:100F1000D407A1D45208043B9CE7BEF1000F05DAC8
:100F200011F809E04CEA0E0E01F809E014F0400F48
:100F300005D095F801E04CEA0E0E85F801E014F0BA
:100F4000200F05D095F802E04CEA0E0E85F802E07D
:100F500014F0100F05D095F803E04CEA0E0E85F85A
:100F600003E014F0080F05D095F804E04CEA0E0EEB
:100F700085F804E014F0040F05D095F805E04CEA7C
:100F80000E0E85F805E014F0020F05D095F806E086
:100F90004CEA0E0E85F806E0E407B2D5EC7952086B
:100FA0004CEA0404EC714FEA5606A3F10403AFD1F6
:100FB000FFE62F7A37432F72D1E600BFB8800020BA
:100FC000C8800020BC80002030B5464A46491478CD
:100FD000464B00F0030E0870C0F3810CC0F3011102
:100FE000032C4FEA901083F800E083F801C0997059
:100FF000D8703FD05378032B28D09378032B13D08D
:10100000D378032B00D030BD022847D00022384BC4
:101010003849400100F5CC70CA701A181958526846
:10102000354BC3E9061230BD022952D00024304BA3
:10103000304D490101F5C87103EB010CAC705C58EF
:10104000DCF804102C4BC3E90441D9E7BCF1020FD2
:1010500036D00024264B274D4FEA4C1C0CF5C47C9F
:101060006C7003EB0C0453F80C506468224BC3E91A
:101070000254C2E7BEF1020F19D000241C4B1D4DD3
:101080000EF10C0E2C704FEA4E1403EB4E1E1D5940
:10109000DEF80440184BC3E90054ABE7144B174982
:1010A000D3F8D8210968521A18BF0122B0E7134CAF
:1010B0000F4B2568D3F8C041641B18BF0124DEE73D
:1010C0000E4C0B4B2568D3F8C841641B18BF012494
:1010D000C1E70A4C064B2568D3F8D041641B18BF02
:1010E0000124A5E7D0570020B2370120F85700208F
:1010F000D055002090550020D85700207C7B002040
:101100002DE9F0414F4E504C3378CCB014F82310F9
:101110008046FFF777F8002800F083804B4F7B78FC
:101120005A0609D44FF48072337814F823104CB067
:10113000BDE8F0412CF05EBB05464FF48072002103
:1011400008A82CF057FB3B7A9B0703D4694640461E
:10115000FFF75AFD3E49FA7D0968424401EA02213F
:101160003C4A89B2126808310AAB05F108000DF556
:10117000947C0A4413F8081C11B912F8081C0909D8
:1011800054F8215013F8071C00F8085C11B912F844
:10119000071C090954F8215013F8061C00F8075CD5
:1011A00011B912F8061C090954F8215013F8051C4E
:1011B00000F8065C11B912F8051C090954F8215011
:1011C00013F8041C00F8055C11B912F8041C090995
:1011D00054F8215013F8031C00F8045C11B912F8FC
:1011E000031C090954F8215013F8021C00F8035C91
:1011F00011B912F8021C090954F8215013F8011C06
:1012000000F8025C81B912F8011C0833090954F88E
:101210002110634500F1080002F1080200F8091CE2
:10122000A8D14CB0BDE8F08154F8211008339C459A
:1012300000F8011C02F1080200F108009AD14CB03C
:10124000BDE8F081A137012024810020C880002062
:1012500004740020007400202DE9F041544E554CD8
:101260003378CCB003F0030314F823108046FEF764
:10127000C9FF002800F08A804F4F7B785A060BD4B4
:101280004FF48072337803F0030314F823104CB04A
:10129000BDE8F0412CF0AEBA05464FF48072002153
:1012A00008A82CF0A7FA3B7A9B0703D4694640466E
:1012B000FFF7AAFC4149FA7D0968424401EAC211DC
:1012C0003F4AC1F30E01126804310AAB05F1080070
:1012D0000DF5947C0A4413F8081C11B912F8041C8B
:1012E000890954F8215013F8071C00F8085C19B953
:1012F00012F8041CC1F3810154F8215013F8061CA4
:1013000000F8075C11B912F8031C890954F8215040
:1013100013F8051C00F8065C19B912F8031CC1F398
:10132000810154F8215013F8041C00F8055C11B930
:1013300012F8021C890954F8215013F8031C00F814
:10134000045C19B912F8021CC1F3810154F8215050
:1013500013F8021C00F8035C11B912F8011C89098A
:1013600054F8215013F8011C00F8025C89B912F8F6
:10137000011C0833C1F3810154F82110634500F1C9
:10138000080002F1040200F8091CA4D14CB0BDE829
:10139000F08154F8211008339C4500F8011C02F13B
:1013A000040200F1080096D14CB0BDE8F08100BF06
:1013B000A137012024810020C8800020047400206F
:1013C0000074002070B50021CCB00546FEF71AFF6E
:1013D00010B3124E737813F0400106D14FF48072AF
:1013E0004CB0BDE870402CF005BA04464FF4807252
:1013F000002108A82CF0FEF9337A9B0703D4694634
:101400002846FFF701FC2346002204F580711A608C
:101410005A6008339942FAD14CB070BDC8800020A0
:101420002DE9F04F814E824C3378CDB014F8231063
:101430008046FEF7E7FE68B17E4F7B785A060CD4F3
:101440004FF48072337814F823104DB0BDE8F04F9C
:101450002CF0D0B94DB0BDE8F08F05464FF4807246
:10146000002108A82CF0C6F93B7A9B0703D46946F3
:101470004046FFF7C9FBFB7D6F4E4344DBB24FEAAA
:10148000431E03F007000EF4C05E4EEA000E6B48E8
:101490009900006801F478710139DFF8AC81684F78
:1014A00005F108020AAB00EB010C0DF5947A47E058
:1014B00014F82BB002F808BC13F807BCBBF1000FFE
:1014C00067D014F82BB002F807BC13F806BCBBF1C8
:1014D000000F6AD014F82BB002F806BC13F805BC54
:1014E000BBF1000F6DD014F82BB002F805BC13F857
:1014F00004BCBBF1000F70D014F82BB002F804BC90
:1015000013F803BCBBF1000F73D014F82BB002F832
:1015100003BC13F802BCBBF1000F76D014F82BB05B
:1015200002F802BC13F801BCBBF1000F79D014F82B
:101530002B000833534502F8010C02F1080289D050
:101540001CF8011FD8F800500EEBC101386801EA01
:101550000509356810F8090029403A4D4FEA101B7B
:1015600000F00F092D6814F82B0013F808BC14F8CC
:101570002990695CBBF1000F9AD111F0800F14BF64
:101580008346CB4602F808BC13F807BCBBF1000F3A
:1015900097D111F0400F14BF8346CB4602F807BC29
:1015A00013F806BCBBF1000F94D111F0200F14BF4B
:1015B0008346CB4602F806BC13F805BCBBF1000F0E
:1015C00091D111F0100F14BF8346CB4602F805BC31
:1015D00013F804BCBBF1000F8ED111F0080F14BF3B
:1015E0008346CB4602F804BC13F803BCBBF1000FE2
:1015F0008BD111F0040F14BF8346CB4602F803BC15
:1016000013F802BCBBF1000F88D111F0020F14BF18
:101610008346CB4602F802BC13F801BCBBF1000FB5
:1016200085D111F0010F08BF484682E7A13701209C
:1016300024810020C8800020FC730020007400205A
:1016400008780020F87300200C780020F0B5002105
:10165000CDB00546FEF7D6FD58B14D4E737813F068
:10166000400108D14FF480724DB0BDE8F0402CF03D
:10167000C1B84DB0F0BD04464FF48072002108A8F7
:101680002CF0B8F8337A6F469B0771D42846694628
:10169000FFF7BAFA3F4BF17D1B683F4A294403EA42
:1016A000012312689DF820509BB21A449DF8210036
:1016B0009DF822309DF8231015B1384E16F82550AC
:1016C000257010B1354D15F82000607013B1334806
:1016D00010F82330A37011B1304B13F82110E170D2
:1016E0003B462E49043204F108000DF1FC0E0AE0DD
:1016F00011F824400433734500F8014C02F1040250
:1017000000F10400B5D093F824402CB912F8044C31
:1017100014F0080C02D0240911F824C093F82540D5
:1017200000F804CC2CB912F8034C14F0080C02D0C9
:10173000240911F824C093F8264000F803CC2CB9F2
:1017400012F8024C14F0080C02D0240911F824C03D
:1017500093F8274000F802CC002CC9D112F801CC34
:101760001CF008041CBF4FEA1C1C11F82C40C1E7F8
:10177000084BF17D1B68294403EA01230021064A36
:101780009BB2126808461A4421700B469DE700BFC1
:10179000C8800020047400200074002024810020F0
:1017A0002DE9F0417C4E7D4C3378CCB014F82310F9
:1017B0008046FEF727FD002800F0DB80784F7B781D
:1017C0005A0609D44FF48072337814F823104CB0C1
:1017D000BDE8F0412CF00EB805464FF480720021B0
:1017E00008A82CF007F83B7A9B0703D469464046CB
:1017F000FFF70AFA6B49FA7D0968424401EAC2110F
:10180000694AC1F30E01126808310CAB05F11000F2
:101810000A4413F8101C11B912F8081C090954F8ED
:10182000215013F80F1C00F8105C19B912F8081CAD
:1018300001F00F0154F8215013F80E1C00F80F5C52
:1018400011B912F8071C090954F8215013F80D1C9E
:1018500000F80E5C19B912F8071C01F00F0154F8DA
:10186000215013F80C1C00F80D5C11B912F8061C7D
:10187000090954F8215013F80B1C00F80C5C19B935
:1018800012F8061C01F00F0154F8215013F80A1C3D
:1018900000F80B5C11B912F8051C090954F8215025
:1018A00013F8091C00F80A5C19B912F8051C01F0BC
:1018B0000F0154F8215013F8081C00F8095C11B905
:1018C00012F8041C090954F8215013F8071C00F8F9
:1018D000085C19B912F8041C01F00F0154F82150EA
:1018E00013F8061C00F8075C11B912F8031C09096B
:1018F00054F8215013F8051C00F8065C19B912F8C9
:10190000031C01F00F0154F8215013F8041C00F8D7
:10191000055C11B912F8021C090954F8215013F89A
:10192000031C00F8045C19B912F8021C01F00F0145
:1019300054F8215013F8021C00F8035C11B912F896
:10194000011C090954F8215013F8011C00F8025C2D
:1019500091B912F8011C103001F00F0154F8211058
:10196000103300F8111C4CA98B4202F108027FF4DD
:1019700050AF4CB0BDE8F08154F82110103300F89E
:10198000011C4CA9994202F1080200F110007FF4F9
:1019900040AF4CB0BDE8F081A13701202481002088
:1019A000C88000200474002000740020F0B50021DD
:1019B000CDB00546FEF726FC00285BD0354E737887
:1019C00013F0400106D14FF480724DB0BDE8F040F5
:1019D0002BF010BF04464FF48072002108A82BF0B2
:1019E00009FF337A9B0747D469462846FFF70CF96D
:1019F0009DF820009DF821109DF822209DF82330AD
:101A000010B1254D15F82000207011B1224810F8B2
:101A10002110617012B1204911F82220A27013B177
:101A20001D4A12F823301C4DE37004F108000AAB84
:101A300049AC13F8042C0AB115F8222013F8031C42
:101A400000F8042C09B115F8211013F8022C00F845
:101A5000031C0AB115F8222013F8011C00F8022C0F
:101A600079B155F8212004339C4200F8012C00F193
:101A70000400DED14DB0F0BD00221346227062702A
:101A8000CCE704339C4200F8011C00F10400D0D1E3
:101A90004DB0F0BDC88000202481002040F2F23318
:101AA000994233D0002936D030B4204C204A2368E4
:101AB000002B33DD15688D4224D0012B2ED05568C4
:101AC000A9421FD0022B29D09568A9421AD0032B16
:101AD00024D0D568A94215D0042B1FD01569A9427E
:101AE00010D0052B1AD05569A9420BD0062B15D062
:101AF0009569A94206D0072B10D0D5698D4201D037
:101B0000082B0BD130BC0B4B186070470A4A137876
:101B100083F001031370074B1860704742F82310DD
:101B200001332360034B30BC186070472C17012031
:101B300078720020DCFB0020C837012040F2F2332D
:101B4000994233D0002932D030B4264C2368002B80
:101B500028DD254A1568A9422CD0012B22D05568D2
:101B60008D4232D0022B1DD09568A9422FD0032B75
:101B700018D0D568A9422CD0042B13D01569A942DE
:101B800029D0052B0ED05569A94226D0062B09D0A5
:101B90009569A94223D0072B04D0D5698D4208BF8F
:101BA000072108D030BC114B1860704770470F4BAD
:101BB000186070470021013B236052F8233030BC8D
:101BC00042F82130094B186070470121F3E70221E8
:101BD000F1E70321EFE70421EDE70521EBE706211B
:101BE000E9E700BF2C17012078720020DCFB002001
:101BF00000220748074910B4074B046809681C60B5
:101C000006485DF8044BC3E921125A601AF00ABB7A
:101C1000BC4C0020B84C0020707A0020A8E40210D0
:101C200008B51AF001FC1AF039FB014B186008BD29
:101C3000D8FB00202DE9F04FB74BB84A1B6812685B
:101C400097B0019213F0080240F0928118242425E5
:101C500002943424CDE9044504242125039431243D
:101C6000CDE9144529241125CDE91245192439253A
:101C7000CDE9104525240925CDE90E451524352546
:101C8000CDE90C453D242D25CDE90A450D250995C5
:101C900005250895012506923021202210202827AD
:101CA00038264FF0080C4FF0140B4FF02C0A4FF071
:101CB0003C094FF01C084FF00C0E1D2407955D07E2
:101CC00000F13E81964C069D2570DD0709D55846EA
:101CD00057464E46F446039ACDF808802270DDE957
:101CE00004129D0704D53A463146029884F800C094
:101CF000DF0644BF0A4620701E0648BF227013F458
:101D0000006240F0CD8018244FF0240E0294342459
:101D1000CDE9044E0424212503943124CDE9134553
:101D200029241125CDE9114519243925CDE90F457F
:101D300025240925CDE90D4515243525CDE90B458B
:101D40003D242D25CDE909450D241D25CDE9074567
:101D500001251592302120221020282738264FF007
:101D6000080C4FF0140B4FF02C0A4FF03C094FF0C9
:101D70001C084FF00C0E052406955D0579D4694CBE
:101D8000159D2570DD0509D5584657464E46F44643
:101D9000039ACDF808802270DDE904129D0504D570
:101DA0003A463146029884F800C0DD0444BF0A4632
:101DB00020709B044FF0FF3348BF22705A4A5B49A2
:101DC0001468C1E90033002CC1E9023323DD584A0D
:101DD000584E02EB840452F8043B142B3AD0A3F57E
:101DE0007A70162813D80F2813D8DFE810F04501B1
:101DF0003D011200120035012D01120012002501D3
:101E0000120012001D0115010D010501FD00FF2B3F
:101E100021DD9442DFD1019B13F0090F03D08B79B0
:101E200023F001038B71019B13F0120F03D08B7908
:101E300023F002038B71404B1B781BB18B7923F08D
:101E400001038B713D4816F0C1FB17B0BDE8F04FA0
:101E500018F018BE7F2316F81300FF28D9D006EB20
:101E600043030D5C5B78944225EA03030B54B2D123
:101E7000D1E7DDE90F560295DDE90D5C05950C9D76
:101E800003940495274C069DDDF81CE02570DDE9E0
:101E90001312DDE91170DDE90AABDDE9088971E7AC
:101EA0001A244FF0260E02943624CDE9044E06245F
:101EB000232503943324CDE913452B241325CDE9A1
:101EC00011451B243B25CDE90F4527240B25CDE9E2
:101ED0000D4517243725CDE90B453F242F25CDE9A6
:101EE00009450F241F250222CDE907450325159238
:101EF0003221222212202A273A264FF00A0C4FF0D4
:101F0000160B4FF02E0A4FF03E094FF01E084FF00F
:101F10000E0E0724069530E7D8FB0020DCFB0020DE
:101F2000A9370120AA3701202C170120947B00201B
:101F3000787200203C4B0020C8370120B47200208A
:101F4000DDE910560295DDE90E5C05950D9DA04674
:101F5000DDE9084EDDE91412DDE91270DDE90BABB5
:101F600004950394079D484CDDF828902570ACE655
:101F70001A244FF0260E02943624CDE9044E06248E
:101F8000232503943324CDE914452B241325CDE9CF
:101F900012451B243B25CDE9104527240B25CDE90F
:101FA0000E4517243725CDE90C453F242F25CDE9D3
:101FB0000A450F2509950725022208950325069253
:101FC0003221222212202A273A264FF00A0C4FF003
:101FD000160B4FF02E0A4FF03E094FF01E084FF03F
:101FE0000E0E1F2407956AE6CB79944223F0010375
:101FF000CB717FF4F0AE0EE78B79944223F00403AB
:102000008B717FF4E8AE06E78B79944223F00803E6
:102010008B717FF4E0AEFEE68B79944223F01003DF
:102020008B717FF4D8AEF6E68B79944223F02003CF
:102030008B717FF4D0AEEEE6CB79944223F00403AB
:10204000CB717FF4C8AEE6E60B7A944223F020030E
:102050000B727FF4C0AEDEE60B7A944223F01003DD
:102060000B727FF4B8AED6E60B7A944223F04003AD
:102070000B727FF4B0AECEE60B7A944203F07F038E
:102080000B727FF4A8AEC6E6A93701204FF6FF73A6
:10209000984207D00B4B420B53F82230C0F30C0090
:1020A000185C7047084BDB78032B06D0054BDB69C7
:1020B00003F5805393F8FF0F7047044B1878C04323
:1020C000C0B27047D8570020D0570020B237012047
:1020D000C3B2B52B70B528D88F2B23D9903B252BB5
:1020E00020D8DFE803F0AE1F1F1F1F1F1F1F5377ED
:1020F0001F1F1F1F1F1F1F1F961F1F1F1F1F333351
:1021000033331F1F1F1F1F1F1F1F1F13974B984A7B
:102110001B78147803F00F030C2B40F285800D2BF5
:1021200000F08C80FF24204670BDD92B1DD0A3F178
:10213000FC02032AF6D88F4A8F49134413F8FC4C4B
:102140000A7864EA0204E4B2204670BD8B4B8C4CE2
:102150009A7900F1580102F00F02A25C18461A7237
:10216000C9B2BDE8704004F069B8864B86491A6868
:102170000B78002A00F0AB8084481A440068145C95
:10218000013303F01F030B70204670BD0125804909
:10219000804C81480B8825700468804AE55C0133D7
:1021A000C3F30D0314780B801570002BBBD17C4B4F
:1021B0001B78032BB7D97B497B4A8B7B1268013391
:1021C000013A1340794ADBB212688B7302EB833316
:1021D0000360A8E70121734E754DF37B6D4A8B4276
:1021E000EC5C11707BD0072B73D0002B9BD14FF68A
:1021F000FF722B786F4903F05F032B700B786E48EA
:1022000003F0FE03002B0B700CBF1346FF23038566
:1022100089E76A4890F846300E2B1AD00F2B14D05D
:10222000BDE8704003F0D2BD14F003040BD0644A43
:1022300004EB440104EB81042244D45C44F0F00438
:1022400071E7FD246FE7F0246DE7C47B04F0F00430
:1022500069E7C27B50064CBF5A495B49C2F3801301
:102260000978002947D059480229C05C45D0012887
:1022700043D0042877D8DFE800F01A18160D0300C1
:102280005349544ACC5CD35C04F00F041C4344F023
:10229000400448E74E4A4F49D25CCC5C44EA1214F1
:1022A00044F040043FE74C49EBE74B4AF3E7002B8F
:1022B00038D091061FD4434A1278012A3BD8474BA5
:1022C0001B78DC4304F03F0444F040042BE7FF2478
:1022D00056E70EF0B3FC86F82C00E87123E76B7824
:1022E000344923F001036B700B784FF6FF723248CC
:1022F00003F0FD0386E77F2415E7302500263849E3
:10230000344CE554CC5C374D7F2CCE54E95CA8BFEF
:102310007F247F29A8BF7F21EE542F4DEC542C4CF5
:10232000E154A6E7D206E6D4274A1278012A02D859
:102330002D4B1B78C5E7284A2649D25CCC5C72B18C
:1023400012F0800F14BF0422082221491443CB5CF1
:102350003BB113F0800F14BF0123022396E70C2238
:10236000F3E7032392E743F04004DCE6B1370120B2
:10237000B0370120007F0020AF3701205C7E0020B5
:10238000947B0020907B0020AB3701208C7B0020C9
:102390008E370120B937012018810020B83701207D
:1023A000B5370120C8800020C44C00201C810020CB
:1023B00008810020A8370120B4720020687E002028
:1023C000187F0020CE4C0020CF4C0020A87D00209C
:1023D000B47D0020B0720020B07D0020AA3701201B
:1023E000547E0020587E0020A93701202DE9F047B7
:1023F000AF4A830BD35C012B31D0022B2DD10123AB
:102400009E46AC4C94F800C0AB4C54F82350D5B168
:1024100000F47F44B4F5184F49D0B4F5384F3AD0A2
:10242000A64CE45CCCB1BCF10A0F16D8DFE81CF076
:1024300059007E00A600D400EB00100156017A017D
:1024400015009701B001B0F5104F0ED1A1F13F0179
:10245000B1FA81F19A4A4909D154BDE8F0870023C5
:10246000984C9E4694F800C0CEE700F47F42B2F547
:10247000184F28D0B2F5384FEFD1914AD35C002BDA
:10248000EBD0C0B29F280BD88F4B1B68034403F5D9
:10249000C053197004E08A4CE45C002CC0D0C0B278
:1024A0000A46BDE8F0470146884804F089BA844CE2
:1024B000E45C002CB4D0C3B20A46BDE8F04719462C
:1024C000824804F069BB7E4AD35C002BC5D0C3B2FE
:1024D0000006F1D47C4A12681A4402F5C052117009
:1024E000EAE7A0F580421204B7D440130428A0F113
:1024F000020606D1A1F13F07B7FA87F7704A7F09B4
:10250000D754734A0C4002EB83039A5DA242A4D0D5
:102510009C557049704A0EF1010305EB443400EB01
:10252000431341F8234042F8204096E7A0F580424B
:10253000160492D4664A801300F0020002EB830373
:102540001A5C04EA4104A24287D0634A1C546149E0
:10255000831C05EB44340EF1010E42F8234003EBDB
:102560004E1341F823409368033003F5005300EB0A
:102570004E1E41F82E3042F820306EE7A0F5A04202
:1025800096B2B6F5C04F3FF668AFC0F30C00B0F599
:10259000805F7FF462AF5213022A06D1A1F13F0699
:1025A000B6FA86F646487609C6540C40484901EB0F
:1025B0008303995CA1423FF450AF9C5445480232DA
:1025C00045490EF1010305EB443402EB431340F897
:1025D000234041F8224040E7A0F5C042B2F5804FC9
:1025E0003FF63BAFC0F30C02002A7FF436AF384A07
:1025F000401302EB8303821E0C40995CA1423FF41E
:102600002CAF9C5485E7A0F5C046B6F5005FBFF43B
:1026100024AF0C402E49C0F3C12001EB8303195CA9
:10262000A1423FF41AAF02EB50021C5453780EF152
:10263000010E284A023005EB443400EB4E1173457D
:1026400042F821407FF409AF234B43F8204004E7D0
:10265000A0F5C046B6F5005FBFF4FFAE04EA410442
:10266000C1121B4801F0020100EB8303585CA04239
:102670003FF4F3AE02EB51025C540EF1010E05EB98
:102680004434144B5578881C00EB4E12033143F848
:10269000224001EB4E1604F50052754543F8262002
:1026A0007FF4DBAE0C4B43F8204043F82120D4E606
:1026B000D0570020CC4C0020047F0020147F002045
:1026C0004C7F0020CD4C00207C7B0020507F0020E0
:1026D0000C7F0020D0550020D8570020A0F5C04224
:1026E000B2F5804F00F29980C0F30C02002A7FF40B
:1026F000B4AECA067FF57BAF614A1268002A00F0CB
:10270000BB80FF245F48090201F400510A4400EB3A
:10271000CE105D49C0F894205C4801EB8303426110
:10272000DC709AE6B0F5C04F00F09280B0F5E04F53
:102730007FF493AE544A04EA410402EB8302514B06
:1027400005EB44350EF1010E5470504A05F5005169
:1027500003EBCE13C3E90451C2E904517DE6A0F5B1
:102760008042032A3FF679AE0C404749C0B201EBE4
:1027700083031C544549831C0EF10102414805EBBB
:10278000443503EB421240F8225041F8235064E6EE
:102790000027214001F03F014E1E2640DFF8E49063
:1027A000A1F1020CA1F1030861F307070EF1010E7C
:1027B0000CEA040C08EA040866F30F2704F03F044F
:1027C00009EBCE1005EB413105EB463605EB443401
:1027D0006CF31747DFF8B0A005EB4C3C05EB483530
:1027E000C0E90216C0E904C5C0E90616446068F3F2
:1027F0001F674FEACE1049F800404AF8237053781B
:10280000734504BF214BC3E90216937873457FF4E7
:1028100024AE1E4BC3E904C51FE600F5A04292B2E8
:10282000B2F5805FBFF419AE174A02EB8303DB7881
:10283000FF2B7FF412AE154BC0F30B005A6940F426
:102840008054115401225869114B01551A7004E645
:102850000D4A04EA410402F823400A4B05EB4435D3
:102860000A4A0EF1010E05F5005103EBCE13C3E940
:102870000251C2E90251F0E5064A126841E700BF81
:1028800094800020D05500200C7F0020D8570020D5
:10289000B43701207C7B00202D4B1B78092B16D0F0
:1028A0000A2B0DD04FF6FF73984223D0294A830B91
:1028B000D35CBBB9A0F580431B0447D4FFF796BD9A
:1028C000B0F5804F29D2234B1B785BB97047B0F528
:1028D000804F1DD344F203039842E3D81D4B5B782D
:1028E000002BEBD01C4B420B53F82220C0F30C03FF
:1028F000D1547047194BDB78032B1AD0154BDB787A
:1029000053B1154BDB6903F5805383F8FF1F704704
:10291000104B1B78002BE5D17047B0F5404F0FD31B
:102920004FF6FF739842E5D00A4BDB78002BD9D1E4
:1029300070470B4B1B788B42EED00846FEF744BB2A
:10294000044A830BD35C002BCCD1B7E7704700BFA0
:10295000CD4C002090550020D8570020D0570020A3
:10296000B2370120034B1B78834201D0FEF72CBB0A
:10297000704700BFB2370120012901D900207047FC
:102980002DE9F04F87B00C46054619F0C9FFC7493D
:102990008246284619F026FF0646002846D0C44F36
:1029A0003B78002B40F0C780324601210DF1120028
:1029B00019F056FF012132460DF1130019F050FFB6
:1029C0009DF81230412B00F0A4803B78002B40F0A2
:1029D000BD8000224FF48041304619F07FFF00286F
:1029E00028DA9DF81230412B00F03C814FF00009AD
:1029F0003B78002B40F0C88000223046AAF5804189
:102A000019F06CFF002880F2A5809DF81230412B50
:102A100005D1002300939DF81330422B26D03B783C
:102A2000002B40F0B580304619F042FF002007B07F
:102A3000BDE8F08F324601210DF1120019F010FFB0
:102A4000324601210DF1130019F00AFF9DF81230F2
:102A5000412BCBD19DF81330A3F14209B9FA89F982
:102A60004FEA5919422BC3D1002300933B78002B26
:102A700040F00181BAF5804F4FEA6A38C0F2B38165
:102A8000012676004645FCDBB9F1000F40F084805A
:102A9000B8F1040F40F37181DFF844A2013E0AF857
:102AA0000460284619F03CFF064619F0BDFB002ED5
:102AB00040F3A8817F4819F0B5FB284618F0D2F8FA
:102AC0007D4B1A68DFF81CB24BF82420002C00F074
:102AD0000B810222DBF80400A8F10303012B00F2B2
:102AE0001F81764D00F5005C05EBC21100F58044B6
:102AF00000F5C043D601A851C1E901C0C1E903C432
:102B0000C1E90534CB613A78002A40F0C280012047
:102B10008DE79DF81330422B7FF457AF3B78002BA5
:102B200040F0A580BAF5804F4FEA6A38C0F2938131
:102B300099460093A4E7284619F074FB3B78002BD4
:102B40003FF432AF504619F06FFB2DE75C4819F0A7
:102B500069FB3EE7324601210DF1120019F080FEBB
:102B6000324601210DF1130019F07AFE9DF8123062
:102B7000412B7FF454AF9DF81330A3F14202B2FA17
:102B800082F25209009248E74D4819F04BFB33E7B7
:102B90004C4819F047FB46E70023DFF844A10AF848
:102BA00004304FEA4833B3F5004F02933FF779AF53
:102BB000700319F03FFBDFF82CB101464BF82400FD
:102BC000002800F0E5804048404B0278039143F82C
:102BD000221001320270284619F0A2FE019019F06D
:102BE00023FB019B002B40F3D380394819F01AFBDB
:102BF0000399019A2846019119F0A4FE01994645CE
:102C00004BF824101BDC002C6ED0B8F1020F5BF8DF
:102C1000240004F1010200F0A1803FF75DAFB8F19C
:102C2000010F7DD1254DD60105EBC212A851C2E995
:102C30000100C2E90300C2E90500D06163E725484D
:102C400019F0F0FA5BF82450029806EBD671A6EB67
:102C50000802A8EB6101284405EB413152032BF037
:102C6000F7F8D0E74FF000099DF81330FAE64FF07F
:102C70000009CDF80090184819F0D4FA002305A8EF
:102C8000ADF8143004F141038DF8143019F0CAFA8C
:102C9000F0E6124819F0C6FAAB199B68D8789B7811
:102CA00003EB002019F0C0FA31E700BFE0E40210A6
:102CB000DD4C0020CCE402102C4F0020D055002029
:102CC000E4E40210F0E40210A237012008740020AE
:102CD000BCE4021018E502100CE5021064E50210D5
:102CE000147F0020047F00205F4819F09BFADBF876
:102CF000000019F099FA5D4819F094FA5C4A1068DE
:102D000019F092FA5B4819F08DFA9AF8000019F060
:102D10008BFA594819F086FA404619F085FA74E79B
:102D2000B9F1000F38D0554D00F50053D60105EB31
:102D3000C212536000F58043936000F5C043D36036
:102D400000F50043136100F52043A851536100F5DD
:102D5000404300F560409361D061D4E6474D00F5F3
:102D60000053D60105EBC212A851C2E90130C2E9F5
:102D70000330C2E90530D361C5E670034FF00009A6
:102D8000DFF804A14FEA483302930AF8049010E7F1
:102D90003B4819F047FA49E6009D1AF804109DBB1C
:102DA000384B01F0020C03F82450344D01F00306B7
:102DB00003EB840300EB463605EBC21400EB4C3CFE
:102DC00001F0010EC4E904C6D60101F0010200EBD6
:102DD0004E3E5A7001F0020201F00301C4E9020EF6
:102DE0009A70D9708FE6B9F1000F39D00023DFF85F
:102DF00098A04E460AF804304FEA48334FF400508A
:102E00000293D6E600225DE65FFA88F3A3F1020E94
:102E100001EA0E08C646194DD60100EB483806F106
:102E2000080C45F80C80174AAC44013BCCF80880EC
:102E300001EA030800EB483002EB8403CCF80400FD
:102E4000CCF80C0002F824E083F802E083F801805B
:102E500083F8038057E64FF40050012600938DE776
:102E60004FF40050012689E728E5021038E50210EA
:102E70002C4F002048E5021054E50210D0550020E8
:102E800024F202100C7F0020147F00202DE9F04F67
:102E9000C04B1A785978C2F3420201F018010A4374
:102EA000122A14D8DFE812F039009900AD00C100F1
:102EB000D4001E011300E700FA00130013001300F2
:102EC00013001300130013000C0113003101B24A68
:102ED0001078062840F22D810D2800F04881AF4976
:102EE00040F2FF7701EBC00C9CF804B09CF8068020
:102EF0009CF805609CF8074011F830509CF802E0FF
:102F00009CF801106FEA0B0B6FEA0808F643E443E4
:102F10004FF00B0A9CF803C010E04FF0FF344FF065
:102F2000FF0C40F2FF374FF03F0E4FF00A0A7F25AB
:102F300001202646A046A3466146974A10709A781B
:102F400040F2FF79154042EA0B0202FA0AF23A43D4
:102F50005F7905FA0AF507EA0C0C93F803A02743FA
:102F60008F4C0AEA01014AEA060A26689C7A93F81D
:102F700006B0A40304EB8114D97A3544C90301EBEC
:102F8000CC1193F804C034440CEA0E0E314406EB25
:102F9000CE2E06EBCB2B834E4CEA080C46EA8A1A5F
:102FA000A6F57F5646EAC7167F4F49EACC233D6017
:102FB0007E4DC5F800E07E4D2C607E4C21607E4940
:102FC000C1F800B07D490A607D4A13607D4BC3F8AB
:102FD00000A07D4B1E60BDE8F08F4FF0FF346FF016
:102FE0007F066FF0030840F2FF374FF0FF0C80219F
:102FF0004FF03C0E4FF00A0A7F250220A346664A96
:103000009CE76FF003046FF07F0640F2FF374FF04C
:10301000FF3B4FF0FC0C80214FF03C0E4FF00A0AB2
:103020007F250420A0465C4A88E74FF0FF36002148
:103030006FF0030440F2FF376FF01F0B4FF0FC0CF2
:103040004FF00A0A60250520B0468E46524A75E7C1
:103050004FF0FF3600216FF0030440F2FF376FF0AE
:103060001F0B4FF0FC0C4FF00A0A60250620B046FB
:103070008E46494A62E74FF0FF3600216FF00304A5
:1030800040F2FF776FF01F0B4FF0FC0C4FF00B0A74
:1030900020250820B0468E463F4A4FE74FF0FF34C8
:1030A00040F2FF374FF0FF0C00214FF03F0E4FF082
:1030B0000A0A7F2503202646A046A346364A3DE756
:1030C0004FF0FF344FF0000C40F2FF374FF03F0E4F
:1030D0004FF00A0A7F252646A046A3466146604671
:1030E0002D4A2BE74FF0FF3600216FF0030440F22A
:1030F000FF776FF01F0B4FF0FC0C4FF00B0A2025F1
:103100000720B0468E46244A18E74FF0FF346FF090
:10311000070640F2FF376FF0030B4FF0000CF82169
:103120004FF03F0E4FF00A0A7C250D20A0461A4AA8
:1031300004E71A4940F2FF3701EBC00C9CF804B0D9
:103140009CF806809CF805609CF8074011F8305008
:103150009CF802E09CF801106FEA0B0B6FEA08087C
:10316000F643E4434FF00A0A9CF803C0E6E64FF04A
:10317000FF346FF0070640F2FF376FF0030B4FF09C
:10318000000CF8214FF03F0E4FF00A0A7C25A046B4
:10319000D4E600BFC8800020B5370120E8F802104F
:1031A0001C8100203FC0010000740020F873002043
:1031B00008780020BC800020B88000200474002023
:1031C000FC7300200C780020C080002070B50446FD
:1031D0000D462E2833D8DFE810F03500530061008B
:1031E0006D008900A200BE00C80032003200D1008C
:1031F000E50032003200F90005010901100132003A
:10320000320032003200320032003200140132004B
:10321000320032003200320032003200320032001E
:10322000320032003200320032003200320032000E
:103230003200190132002F0008460DF019FD8C4EA6
:10324000355570BD8B4A5378DE0711D5C8060FD4AB
:103250004FF6FF71884823F0010353700378874AC3
:1032600003F0FD03002B03700CBF0B46FF231385F7
:103270007F4E3378AB42E3D03570FFF707FEDFE7D0
:103280007C4B93F90030002BC0F2DE80784E7378CF
:10329000AB42D5D07570FFF7F9FDD1E7784B1B78BD
:1032A000062B40F2B8800D2B00F0B58040F2FF767F
:1032B0000B20B3E0724B6E4E1A78724B724903EBDF
:1032C000C20393F801C05B79704A65EA030342EADE
:1032D0008312B37A086805EA0C0C9B036C4903EB74
:1032E0008C1303440B606B4B1A60A9E7644B66496F
:1032F0001A78644B096803EBC2039E789A79664892
:1033000005EA060301EBC323036040F2FF73634940
:1033100065EA020243EAC223554E0B6090E7584B20
:10332000534E1A78574B584903EBC20393F803C026
:10333000DB795B4A65EA030342EAC312F37A086861
:1033400005EA0C0CDB03574903EBCC1303440B6079
:10335000554B1A6074E74C4B544A1B6801F03F050B
:1033600003EBC523424E13606AE7514B514A0909EA
:10337000197005F00F033E4E137061E7404A414B50
:1033800011783B4E404A03EBC10358781368F2783A
:1033900005F007051040AA033D4902EB80121344D3
:1033A0000B604DE7364A374B1178314E364A03EB06
:1033B000C103D8781368727905F003051040EA0359
:1033C000384902EBC01213440B6039E73A4A2E4BDE
:1033D00012681B68013A3949154003EB8533244EC6
:1033E0000B602DE7224E01F00F0529E70122344B37
:1033F0001F4E01F00F051A7022E71D4E01F0BF05A8
:103400001EE71B4E7176FFF741FD19E708460DF0E8
:10341000F5FB174E14E740F2FF360A20194A1A4905
:1034200002EBC30C12F8332009682A409CF80430E0
:1034300082400A44234965EA03030A608340224A22
:10344000334313600A4EFBE60B4AA906137806D5F0
:1034500043F001031370FF22084B1A8516E703F0AF
:10346000FE031370002BF6D14FF6FF72F4E700BF96
:10347000C880002008810020A8370120B4720020F5
:10348000B5370120E8F802101C8100203FC0010080
:10349000087800200C780020F8730020FC730020CE
:1034A0007F800100BC800020C0800020B880002008
:1034B000A6370120A1370120C44C0020188100202C
:1034C000AC3701200074002004740020F8B5C3B2AA
:1034D000D92B00F2FB81762B6BD9773B622B68D816
:1034E000DFE813F0EF006700670067006700340152
:1034F00039016700670067006700670067006700C1
:103500006700670067006700670067006700670083
:103510006700670067006700670067006700670073
:103520006700670067003E016B0190019A01670028
:10353000670067006700A901AE01670067006700C8
:10354000670067006700680068006800680067003F
:103550006700670067006700670067006700630037
:10356000CB006700670067006700670067006700BF
:103570006700670067006700670067006700670013
:103580006700670067006700670067006700670003
:1035900067006700670067006700670067006700F3
:1035A000670067006700D500E200AB4A01F00F0139
:1035B0001170F8BDA94D00F15803A94E0A462846DE
:1035C000D9B202F007FE3278AB79934240F0C9815C
:1035D000A4492B790A789A42EBD0A34A03F003005E
:1035E000C3F38105C3F3011C0B7003284FEA931347
:1035F0001070557082F802C0D37000F07E820022F5
:1036000016469A499A4C02EB80025001267001EB53
:1036100042120E5852689748032DC0E9006200F02C
:1036200065820022164602EB85025201083266705E
:103630008E188D587268BCF1030FC0E9025200F079
:103640004E820022154602EB8C0252011032A57008
:103650008E188D587268032BC0E9045200F038822E
:103660000022154602EB83035B011833E570CC188A
:10367000CA586368C0E90623F8BD774B1B780C2B4A
:1036800040F297810D2B94D17B4B1970F8BD00242B
:103690007A4B7B481A68490102F4FC3201F4FC6160
:1036A0000A4304701A60F8BD0024744B74481A6809
:1036B000C90202F4FC6201F4FC310A4304701A608E
:1036C000F8BD704B1B78082B00F05B816E4B1B78AC
:1036D000082B7FF46EAF6D4B586800283FF469AF3C
:1036E0006B4A01F03F03527801F0C001802902EAE1
:1036F000430200F0838240F22482C02940F0D3814B
:1037000002250121594B00EB4234013200EB4232D9
:1037100003EBC513C3E90242C3E90424002940F0C6
:10372000C281514B5A78012A05D15049514AD1E9F9
:103730002210C2E902109B78012B7FF43AAF4B4A6A
:103740004C4BD2E92421C3E90421F8BD5148BDE81E
:10375000F8400DF0CDBC4F48BDE8F8400DF0A8BED4
:103760004FF0010C4C484D4E4D4A05784D4C138896
:10377000206886F800C0002D00F0E980C15413884D
:1037800049486344C3F30D0301701380002B7FF499
:1037900010AF464B1B78032B7FF60BAF4448454ACE
:1037A000837B1168444A0133013912680B40DBB254
:1037B00002EB833283732260F8BD384B1A78002AFB
:1037C00040F0C080012001F0C002402A187000F0D3
:1037D000D281802A00F0A381002A7FF4EAAE374B21
:1037E000304C1B782E4803EB01232B499BB20A7007
:1037F00021680380C95C2C4A0133C3F30D031170A7
:103800000380C3E72E4D2B78002B00F0118100239D
:103810002C4A2B701170F8BD254D6B7C03F03F04D2
:10382000112C40F0A9801E063FF5C3AE013404F010
:103830003F046C74F8BD2448BDE8F84002F056B966
:10384000214B93F846200F2A00F0C580BDE8F840D0
:103850001D4802F051B900BFB13701205C7E002045
:10386000A7370120AE370120D0570020D0550020C7
:1038700090550020D8570020B03701208C7B0020C5
:10388000AB370120CD4C0020CC4C0020047F002021
:10389000147F0020B87D0020BA370120B9370120FD
:1038A0008E37012018810020B8370120B53701205C
:1038B000C8800020C44C00201C8100209D370120BE
:1038C000AC370120AD370120687E0020FC3B032B84
:1038D0003FF66FAEAD4BAE4E04301D78C4B2335DD3
:1038E0000D40AB423FF465AEAA4B1B781B0700F1BD
:1038F0000C81A94AA94912686300DBB202EB853248
:1039000035550D5DA64903F1700041F8202003F103
:10391000710602F50052032D41F8262003F101063D
:103920007FF447AE9F4D2D5D022D7FF442AE51F8DE
:10393000205001209C4941F823509C4B41F82620FF
:103940001855F8BD00229A4801701A70F8BDC65C7F
:10395000984D0133C3F30D0313802E70C1541388A7
:1039600014E783EA0204210600F1E680E20600F192
:10397000DE80AB7933702BE62046FFF727FC6B7CAB
:1039800051E78D4B186800283FF4A0AE8B4B01F037
:103990003F041A7801F0C003802B02EA440200F0D1
:1039A000688140F2E580C02B7FF4BBAE0125002189
:1039B000A8E6834A8348147804F0030202EB420528
:1039C00002EB85020244A007D1547FF5F2AD01223B
:1039D0007D4B1A70F8BD01F00C020C2A00F0C0807B
:1039E0007A4A1278022A0BD9DA7B4A40950607D523
:1039F000774A5078042814BF0124FD2420445070D5
:103A000001F00302032A00F0AF80724A1278022A02
:103A10007FF61CAFDB7B4B40DC067FF517AF6C4AB3
:103A20001378042B14BF0120FD20034413700DE70D
:103A30004FF0010C684B694E1B7801F0070103F051
:103A40007002C2EB0222100903F00703644AC1EBC3
:103A50000121C3EB0323A6FB000685F800C0A2FBEF
:103A60000105A2FB03025F4C491B9B1A02EB5302A8
:103A700005EB51013504277C5B485C4B890845EA1E
:103A8000920545EA012540F8275043F82770C2F314
:103A900087023B46C9B2F0B216F0CAFF7B1C03F0A6
:103AA0000F032374F8BD3D4B5A78022A05D13C49D7
:103AB0003D4AD1E94210C2E902109B78022B7FF403
:103AC00078AD374A384BD2E94421C3E90421F8BD27
:103AD000344AD278022A00F0B4800025C2E5314A87
:103AE0009278022A00F0B5800025ACE52D4A527884
:103AF000022A00F0B680002695E52A4A1278022AAA
:103B000000F09680002626497CE5394818F08AFBAB
:103B1000284618F089FBA00318F086FBE9E6244B41
:103B200001F03F001978BDE8F840FFF74FBBFF21D7
:103B3000002003F0B3FA1CE74021002003F0AEFAA6
:103B400014E702250121164B00EB4234013200EB51
:103B5000423203EBC513C3E90242C3E90442DDE587
:103B600000201B4A50704BE70022194B1A706DE67B
:103B700001250021E7E70E4B1E481B781E4C03EB86
:103B80000123C3F30D0302702380F8BDAF3701207A
:103B9000007F0020DD4C0020FC7E0020D05700205C
:103BA000D0550020F8570020D8570020905500200D
:103BB0009D370120B8370120047F0020147F0020AA
:103BC000B0370120187F0020B3370120CE4C0020F1
:103BD000A87D0020CF4C0020AD370120264992243B
:103BE00025499224C8800020BC7E0020248100202A
:103BF00070E50210BA3701208E370120022401211E
:103C00001D4B03EBC4131D4C04EA423404449C6076
:103C100022F00204013442F0020200EB4434DC6082
:103C200000EB4234013200EB4232C3E9044275E555
:103C300013490E681049D1F8C041361B18BF012640
:103C4000E0E40F4DD1F8D8612D68AD1B18BF0125F8
:103C500008E50B4DD1F8D0612D68AD1B18BF0125CB
:103C6000F1E4074E3768D1F8C861F61B18BF01268A
:103C7000D9E401240021C3E7D055002000A0FFFFB4
:103C80007C7B00202DE9F04F264C274A237885B015
:103C900003F0800343F01F0000211268207003E04E
:103CA0000131202900F0E68212F82100D028F7D156
:103CB0001E4C5FFA81F86178207A8C0700F02000B2
:103CC00040F1F381B8F1000F00F0A982184902EB2E
:103CD000880508F1FF342E464FF000091D46CDE956
:103CE0000284D1F800A002E0964200F09882D378D6
:103CF00009F1010903F00F0303435FFA89F902F1A7
:103D00000402F1D0029B994580F08982039902F167
:103D1000080EA1EB0901C9B2CDE90096131D0EEB07
:103D2000810E0BE008810020BC800020C8800020AC
:103D3000B88000200433734500F0748213F8011C2E
:103D400001F00F010143F5D012F8048C13F804CCF4
:103D5000A8EB0C01C9B2A1F11004E4B2E02CE9D93E
:103D600012F803BC13F8039CABEB0904E4B2A4F112
:103D70001006F6B2E02EDDD912F8026C13F8027CC0
:103D8000F600FF0006F4FC6607F4FC670F295644B2
:103D9000574400F24D82F02C0F4405D9B4463E46FC
:103DA0006746A9EB0B04E4B296F8008096F810C0C1
:103DB00097F800900CEB082C97F810801FFA8CFCF9
:103DC00008EB09284CFA04FC1FFA88F81CEA080FD3
:103DD00040F069810F29ADD096F8018096F811C0A6
:103DE00097F801900CEB082C97F811801FFA8CFCC7
:103DF00008EB09284CFA04FC1FFA88F81CEA080FA3
:103E000040F051810E2995D096F8028096F812C0A4
:103E100097F802900CEB082C97F812801FFA8CFC94
:103E200008EB09284CFA04FC1FFA88F81CEA080F72
:103E300040F039810D293FF47DAF96F8038096F864
:103E400013C097F803900CEB082C97F813801FFA17
:103E50008CFC08EB09284CFA04FC1FFA88F81CEAD1
:103E6000080F40F020810C293FF464AF96F80480DD
:103E700096F814C097F804900CEB082C97F814806F
:103E80001FFA8CFC08EB09284CFA04FC1FFA88F88E
:103E90001CEA080F40F007810B293FF44BAF96F85E
:103EA000058096F815C097F805900CEB082C97F84C
:103EB00015801FFA8CFC08EB09284CFA04FC1FFA49
:103EC00088F81CEA080F40F0EE800A293FF432AF70
:103ED00096F8068096F816C097F806900CEB082C1A
:103EE00097F816801FFA8CFC08EB09284CFA04FCA2
:103EF0001FFA88F81CEA080F40F0D58009293FF422
:103F000019AF96F8078096F817C097F807900CEB52
:103F1000082C97F817801FFA8CFC08EB09284CFA3C
:103F200004FC1FFA88F81CEA080F40F0BC8008293E
:103F30003FF400AF96F8088096F818C097F80890FC
:103F40000CEB082C97F818801FFA8CFC08EB09285A
:103F50004CFA04FC1FFA88F81CEA080F40F0A38012
:103F600007293FF4E7AE96F8098096F819C097F84C
:103F700009900CEB082C97F819801FFA8CFC08EBC1
:103F800009284CFA04FC1FFA88F81CEA080F40F0D4
:103F90008A8006293FF4CEAE96F80A8096F81AC0B9
:103FA00097F80A900CEB082C97F81A801FFA8CFCF3
:103FB00008EB09284CFA04FC1FFA88F81CEA080FE1
:103FC00071D105293FF4B6AE96F80B8096F81BC068
:103FD00097F80B900CEB082C97F81B801FFA8CFCC1
:103FE00008EB09284CFA04FC1FFA88F81CEA080FB1
:103FF00059D104293FF49EAE96F80C8096F81CC067
:1040000097F80C900CEB082C97F81C801FFA8CFC8E
:1040100008EB09284CFA04FC1FFA88F81CEA080F80
:1040200041D103293FF486AE96F80D8096F81DC065
:1040300097F80D900CEB082C97F81D801FFA8CFC5C
:1040400008EB09284CFA04FC1FFA88F81CEA080F50
:1040500029D102293FF46EAE96F80E8096F81EC064
:1040600097F80E900CEB082C97F81E801FFA8CFC2A
:1040700008EB09284CFA04FC1FFA88F81CEA080F20
:1040800011D100297FF456AE96F80FC0F17FFE7B68
:1040900001EB0C2189B22141FC7F04EB0624A4B280
:1040A00021423FF447AE2B46B5E0B8F1000F00F0D7
:1040B000B680754902EB880608F1FF374FF000091A
:1040C0001C46B446CDE90287D1F800A002E0624563
:1040D00000F0A580D37809F1010903F00F03034331
:1040E0005FFA89F902F10402F1D0029B994580F050
:1040F0009680039902F10807A1EB0901C9B2CDE945
:10410000009C131D07EB810703E00433BB4200F062
:104110008C8013F8011C01F00F010143F5D012F857
:1041200004CC13F8046CACEB0601C9B2A1F108058C
:10413000EDB2F02DE9D912F803BC13F8039CABEBF8
:104140000905EDB2A5F1080E5FFA8EFEBEF1F00F83
:10415000DBD912F8028C13F802EC07290AEBC80825
:104160000AEBCE0E76D8F82D8E4405D94646F04699
:10417000B646A9EB0B05EDB298F800609EF800C0BA
:104180002E4116EA0C0F45D10729BED098F80160E0
:104190009EF801C02E4116EA0C0F3BD10629B4D07F
:1041A00098F802609EF802C02E4116EA0C0F31D139
:1041B0000529AAD098F803609EF803C02E4116EA9C
:1041C0000C0F27D10429A0D098F804609EF804C0F1
:1041D0002E4116EA0C0F1DD1032996D098F80560E0
:1041E0009EF805C02E4116EA0C0F13D102298CD07F
:1041F00098F806609EF806C02E4116EA0C0F09D109
:10420000002982D198F8071029419EF807502942C9
:104210003FF47BAF23461D4A43F03F03137005B0C4
:10422000BDE8F08FDDE900965EE5DDE9009C4EE734
:10423000ACEB080C5FFA8CF1F02C0E4406D9B446B6
:104240003E466746A9EB0B095FFA89F40F297FF612
:10425000ABAD6FE5A6EB0C06F1B2F82D884406D99C
:104260004646F046B646A9EB0B095FFA89F50729E1
:1042700082D94AE7064C8846207A647800F020000C
:10428000A1073FF523AD14E7B88000200881002086
:10429000C88000202DE9F0479F4ADFF8D08293784C
:1042A000044683F020039F0698F80060937043D57E
:1042B0000D46002E3ED00D2E0CBFA020AA20974FF9
:1042C000974997F809C009681CF0020AA1EB0001A0
:1042D00013BF002001204EF65819DFF894920028F1
:1042E00040F2051008BF4FF49C708E4EE161D6F885
:1042F00000E070454BDC8C4B1B689945C0F2A580F3
:10430000DFF870920CF0B2FE884B1B6823B9884B23
:104310001B78002B40F086803368C02B42D04FF6CC
:10432000FF7399F80020002A0CBF1846FF20208553
:10433000BDE8F087A020C2E7002E71D00D2E0CBF83
:10434000A021AA21754F774E787AE16185073168FF
:1043500000F1C780B1F5827F00F3968001313160B2
:10436000002900F0938010F0800F0CBFEB23F523A1
:10437000DFF800928B4299F8000000F0BC8000F357
:104380009B80002840F049814FF6FF70CFE71CF07A
:10439000800F61D1BEF1C00F40F009810022644B53
:1043A0001A70ADE73B7A9A0706D498F80030013BC3
:1043B0000B2B01D8FFF766FC5B4B5E491B685E4820
:1043C00081FB03211944DB17C3EBE12101F002FD5E
:1043D0005A4B59481B78002B0CBF0221822101F057
:1043E00019FE0221564802F031FA022155480CF01C
:1043F00085FE4FF4417003F0E7F80121524A29602D
:1044000013780B4403F007005B07107087D54F4B00
:104410001B78002B83D04E4A137A0B4313727EE72E
:10442000A0218FE73068FF283FF779AF7A7E98F8B0
:1044300000301107C0B218D5D91F012915D8D106EF
:1044400040F1FE80FDF702F913E0A3EB09030B44F2
:10445000DFF82091E36155E7BEF1D40F9ED0BAF1A9
:10446000000F14BFFE20E620A6E03A4A52F823309F
:104470009847394B32681B684FF4887113443748AA
:10448000E42216F0E9FA47E70021316023F0400307
:10449000937001232648254903700B680BB9304BF4
:1044A0001B78013B0B602F490B78002B64D0013B3C
:1044B0000B700021DFF8BC90FB7D99F800000B44E5
:1044C000F97C5B1ADBB23978022B01F0100100F0A5
:1044D000928000297FF455AF537823F00103537085
:1044E0004FE7B1F59C7FCFDA013131600029CDD0A3
:1044F0004FF480733CE7537800F0FD0023F0010394
:10450000537089F80000002840F084804FF6FF7255
:10451000154B1A8538E700BF08810020C8800020AD
:10452000D44C002098800020D84C0020384B00202C
:10453000A437012049FC7292687E0020B637012022
:10454000507F0020B87D00209C3701209E3701203D
:10455000947B00207C4C0020E04C0020E8FB0020F5
:10456000DC4C00209F370120B4720020B5370120B9
:10457000C4160100A8370120334D7B7B2E78B6FA94
:1045800086F0400928704BB1002E48D103F00F038C
:1045900003EB83035B000B70002B8AD02B482C4B62
:1045A0002C490078097818702B4B197081E7BAF103
:1045B000000F14BFF420DC202849097800297FF47B
:1045C0009FAE86457FF49CAE43F040039370137812
:1045D00063F07F0313707B7898067FF591AEFF221E
:1045E000DFF880901E4B1A8599F8003043F00103E4
:1045F00089F8003086E6537843F0010353700029B0
:104600003FF4BFAEFF22164B40F0020089F80000D5
:104610001A8502E0FF22124B1A85FF2087E61B094C
:1046200003EB83035B000B70002B3FF442AF3B7B3B
:10463000074809491D0903F00F0305700B7038E79F
:10464000FDF7B4F915E700BFA0370120A637012018
:10465000BC370120A1370120BB370120A43701203E
:10466000B4720020A83701202DE9F04F0023012467
:10467000012593B00229CDE90E458846CDE90C45C8
:104680000E9340F39B8204298146A1F1020B40F373
:104690009B8218460127A1F1050C09F102022CF0BA
:1046A000010C99F8003099F801E09444CDF820907D
:1046B0004A46CDF824803C468146B846CDE90500FF
:1046C000CDE90300A649A74E02900190CDF81CB099
:1046D000009003EB0E279A46937807EB03478F422F
:1046E00000F0118268DCB74200F00A827BDC9E4D4C
:1046F000AF4200F01E8200F31781DFF884B25F45FD
:1047000040F0E781012592F803A00EEB032707EBA9
:104710000A478F42059540F0938000980F9F013023
:104720000090012007440F97971C6745D6468146A5
:1047300004F10104039040F0BB8049464746DDE99F
:104740000898DDF81CB0009D00B10E95029B03B1E6
:104750000D9701B10C94C9F10203134409EB030254
:1047600019F80350517894787D4E05EB012000EB49
:104770000440B04200F0968200F31A81A6F11016B0
:10478000B04216D040F3D881784EB04200F0128289
:10479000774EB04200F08382764EB04240F01E82E7
:1047A0000D9801300D900E9801300E900F98013049
:1047B0000F900120049012E16F4DAF4234D02BDCFA
:1047C000A5F5C015AF4200F09E8005F50025AF426B
:1047D00000F09480DFF8ACB15F4540F0AF800F9FF0
:1047E00001370F9723E0614DAF4200F08C80604DA0
:1047F000AF4200F09781DFF87CB15F4540F09E80CA
:1048000000980F9F013000900120074408F1010833
:104810000F97029004900AE0584DAF426ED0DFF837
:1048200068B15F4540F08A804FF00109013492F889
:1048300003A00EEB032707EB0A478F423FF46DAF4F
:104840008F4211DCB74200F0708133DC464DAF423D
:104850001FD000F39F80DFF828B15F4540F047810B
:104860000125D64605951FE0434DAF4241D039DCC6
:10487000A5F5C015AF4251D005F50025AF4247D090
:10488000DFF800B15F4506D10F9F01370F97D6467D
:104890000AE001250695BEF1D30FF8D1772BD64655
:1048A00002D1019D01350195971C67453FF445AF45
:1048B0003A460EE72D4DAF4230D02D4DAF4200F0BD
:1048C0002D81DFF8B0B05F45E5D100980F9F013032
:1048D000009001200744D64608F101080F97029086
:1048E0000490E1E7254DAF4212D0DFF89CB05F4560
:1048F000D1D14FF001090134D646D5E7012508F1A1
:104900000108029593E700980130009001208EE79E
:104910000125D64608F101080295C5E70098D6465C
:10492000013000900120BFE7DFF860B05F4500F084
:104930000081DFF85CB05F453FF476AFBAF1D30F8A
:104940007FF475AFBEF1770F7FF471AF019D92F8E0
:1049500003A01F0201357737019507EB0A476FE780
:104960003200700022006000320240003200680015
:104970002200700032006000320090003200A0007F
:104980003200400032FF77003200B00032034000B6
:1049900032005000DFF8A4B25F453FF47AAFDFF891
:1049A000A0B25F457FF477AF4FF001090134A3E770
:1049B0009E4EB04200F0D38000F3CA80A6F5C01628
:1049C000B04200F0F78006F50026B04200F0EE801D
:1049D000974EB04240F002810F9801300F900133A2
:1049E0009B4528DDD27801EB042303EB0243914A77
:1049F000934200F07F8100F3BE80A2F11012934237
:104A000000F0848100F332818B4A934200F081816F
:104A1000894A934240F35681884A934200F0798153
:104A2000874A934200F0F680D32904D1772C02D133
:104A3000019B01330193B8F5001F00F07881B8F5B0
:104A4000801F00F09280B8F5002F03D1059B002B4A
:104A500040F046817B4817F0E5FB7B4817F0E2FB0E
:104A6000404617F0E1FB794817F0DCFB059817F09A
:104A7000DBFB774817F0D6FB069817F0D5FB754897
:104A800017F0D0FB049817F0CFFB734817F0CAFB60
:104A9000039817F0C9FB714817F0C4FB019817F091
:104AA000C3FB0C9A0D9B022ADABF022200200220CF
:104AB0009A42A8BF13460E9AB8BF03209342ACBFD8
:104AC0001A4604200F9B9A42B8BF052013B0BDE8D8
:104AD000F08F0BF5807B5F457FF430AF012592F8B6
:104AE00003A00EEB032707EB0A470695A8E6069DF1
:104AF0000BF5807B5F4508BF45F001050695CAE6CA
:104B00000125049593E600980F9F01300090012045
:104B10000744814601340F97039088E60125D64665
:104B20000395C1E60125039581E60125D646049546
:104B3000BAE6012506957AE63F4EB04200F0AC8019
:104B40006CDCA6F50076B04244D10120059046E722
:104B5000434EB0422AD006F58016B0423ED10C98A2
:104B600001300C903BE701230593059BC3F109003D
:104B700013B0BDE8F08F2D4A93424BD00FDCA2F565
:104B8000C012934200F09A80364A93420AD0284AD3
:104B900093427FF449AF0F9B01330F934BE7304AA9
:104BA000934233D10D9B01330D9344E70D980130AF
:104BB0000D9014E70E9801300E9010E7CDE9053303
:104BC00001930493039345E7CDE90533CDE903331E
:104BD0000193C3E506F58076B0425DD0D32D7FF416
:104BE000FEAE77297FF4FBAE0198013301305B45BF
:104BF0000190BFF620AFD2782302773303EB024354
:104C00000C4A934271DD094A9342BDDD164A934234
:104C10007FF40AAF0C9B01330C930CE7074EB042B4
:104C20003AD0074EB0429AD0D8E700BF3200900089
:104C300032FF770032007000320240003203400041
:104C40003200500084E502109CE50210A4E5021039
:104C5000B0E50210BCE50210C8E50210D4E5021070
:104C60003200A000320080003200B000314A93428E
:104C700024D0314A934235D0304A93427FF4D4AEA7
:104C80000D9B01330D930E9B01330E930F9B01334C
:104C90000F9301230493CEE6012006909FE60120A6
:104CA00003909CE60C9801300C900E9801300E9009
:104CB0000F9801300F900120039090E60E9B013376
:104CC0000E93B8E6A2F50072934225D1B8F5001F05
:104CD0002DD0B8F5801F3FF446AFB8F5002F23D193
:104CE0000A20F3E601230393A5E6A2F110129342F2
:104CF000BFDC8DE60C9B01330C930E9B01330E93AE
:104D00000F9B01330F930123039394E60123049334
:104D100091E60123069387E60698094A934208BF65
:104D200040F0010006907FE60123059392E60720FC
:104D3000CCE600BF32006800220070003200600044
:104D40003201400003462DE9F04FCB4883B0019378
:104D500017F068FA15F0DAFE002145F2226002F041
:104D6000B3FA0023C549C64F0B60C649C64A0B605B
:104D7000C649C7480B60C749C74C0B70C749C7E94C
:104D800000330B70C64903600B70237013780BB9A6
:104D900001231370C34AC4491368DFF84CB3E32BF3
:104DA000DCBFE42313604EF657130A68BF4E9A42E5
:104DB000DCBF4EF658130B60A0210022BC4B9BF8C1
:104DC0000000D9613178BB4D83F82A20022900F018
:104DD000100283F82B202A6840F2E183022333700B
:104DE000A2F10803F82B00F2CF820821DFF8FC8241
:104DF000D8F800308B4202DB082BD8BF19460123BC
:104E00005B009342FCDB0122AB4E2B60013B337015
:104E100052008A42FCDBC8F800200022A749A84EB5
:104E20000B78328003F003030B70A6490B7803F074
:104E300003030B70002840F025844FF4804017F0E6
:104E4000F9F9DFF8ACA24FF48042FF21CAF8000064
:104E500028F0D0FCDAF8003022789B49DFF89492F1
:104E600041F822300132C9E90033C9E90233C9E906
:104E70000433C9E90633C9E90833C9E90A33C9E982
:104E80000C33C9E90E33C9E91033C9E91233C9E952
:104E90001433C9E91633C9E91833C9E91A33227042
:104EA000C9E91C33C9E91E33C9E92033C9E92233F2
:104EB000C9E92433C9E92633C9E92833C9E92A33C2
:104EC000C9E92C33C9E92E33C9E93033C9E9323392
:104ED000C9E93433C9E93633C9E93833C9E93A3362
:104EE000C9E93C33C9E93E33C9E94033C9E9423332
:104EF000C9E94433C9E94633C9E94833C9E94A3302
:104F0000C9E94C33C9E94E33C9E95033C9E95233D1
:104F1000C9E95433C9E95633C9E95833C9E95A33A1
:104F2000C9E95C33C9E95E33C9E96033C9E9623371
:104F3000C9E96433C9E96633C9E96833C9E96A3341
:104F4000C9E96C33C9E96E33C9E97033C9E9723311
:104F5000C9E97433C9E97633C9E97833C9E97A33E1
:104F6000C9E97C33C9E97E339BF80030002B40F05F
:104F70008083D8F80000800317F05CF9D8F800208F
:104F8000404B00219203186028F034FC3D4A2378FE
:104F900012684D4941F82320013323709BF80030FB
:104FA000002B40F05F832868DFF84C81800317F006
:104FB00041F92A68FF219203C8F8000028F01AFC82
:104FC0002378D8F80020404941F82320013323708A
:104FD0009BF80030002B40F0F382344B1B78012B00
:104FE00000F06C84022B00F05184002B00F09C83B5
:104FF000364BC9F8A83103F50053C9F8AC31344B2E
:10500000C9F8E83103F50053C9F8EC31314A324BA5
:1050100007CA03C31A80019A22B11146A3F10800FE
:1050200028F0B8FE00212C48FDF7A6FC2B4B327867
:105030001878531C0A284FEA433140F26D82B1F5CB
:10504000004F00F38884264B264D01211868FDF798
:1050500093FC287872780A2802F101034FEA433161
:1050600040F20E82B1F5004F00F364841B4B1B78B5
:10507000062B00F0388241E0E4E50210887B002036
:10508000047F00201C810020DC4C00209480002044
:10509000907B0020B3370120A2370120B4370120D4
:1050A000A5370120D44C0020D84C0020D04C002043
:1050B000B4720020C84C0020AF370120CF4C002034
:1050C000147F0020CE4C00200874002058390510B1
:1050D00058F9041000E70210E8720020CD4C0020BF
:1050E000C04C0020CC4C0020DD4C0020C44C0020E3
:1050F0007C7B0020D0550020FC7E0020A44B1B7838
:105100005BB1DAF80030D9F888209A4200F0358493
:10511000D9F80821934200F04F849BF80030002B0F
:1051200040F0B982002000249A4AD9F80010D8F83B
:1051300000301160D9F80410C9F8D8315160D9F89D
:1051400008109160D9F80C10D160D9F810101161D5
:10515000D9F814105161D9F818109161D9F81C10C0
:10516000D1618D4A8D4914608D4A14608D4A146056
:105170008D4A116003F54042C9F8C02103F5604231
:10518000C9F8C42103F50042C9F8C82103F520423B
:10519000C9F8CC2103F58042C9F8D02103F5C042FB
:1051A00003F50053C9F8D421C9F8DC31002840F0D8
:1051B0006E827E4C0027A0467D4E7E4D98F80220E0
:1051C00098F8011018F8030B3B46040444EA012444
:1051D000144345F8047F46F8044F013715F028FCC6
:1051E000102FEBD14FF00008734B4146A3F800801D
:1051F000724B7348A3F80080724B734FA3F8008082
:10520000724B734DA3F80080724BAA46A3F800803E
:10521000714B4FF0FF39A3F8008000F031FC0621FC
:105220006E4801F0F3FA06216D480BF037FF0121BB
:10523000634800F0EFFE0121684801F007FB0121FF
:1052400067480BF05BFF42464146664800F09AFF14
:10525000654800F0B7FFBC46644BDFF820E283F8F6
:105260000080614B012683F8048083F80680604B40
:10527000604C83F80080604B83F80080BEE80F002C
:10528000ACE80F00BEE80F00ACE80F00BEE80F006E
:10529000ACE80F009EE80700584BACE803004AF862
:1052A000043B574B8CF8002083F80080554B564A3E
:1052B000A3F80080554BC5F8048083F80080544B58
:1052C000C7F8398083F80080524BCAE9018883F817
:1052D0000080514BC4E90099C3F800804F4BC4E9EA
:1052E0000299C3F800904E4BC7F83C80C3F8009079
:1052F0004C4B4D48C3F800904C4BC3F800904C4BBE
:1053000083F800804B4B83F800804B4B83F8008080
:105310004A4B1B6813604A4A13604A4A13604A4A60
:1053200013604A4A13604A4A13604A4B83F800806C
:10533000494B83F80090494B83F80080484B1E701E
:10534000484B1E70484B83F80080484BA3F8008000
:10535000474BC3F80080474B83F800800C4B1B7809
:10536000B34284BF04236B7013F02EF89BF8003017
:10537000002B40F0B5812C4813F028F93E4803B0CB
:10538000BDE8F04F16F04EBF082211462EE500BFD3
:10539000D04C0020D8570020905500200302010077
:1053A000F8570020D0570020007F00209CF8021002
:1053B000B87E002020810020A87D0020587E00209B
:1053C000687E0020547E0020C8800020B47D00202C
:1053D00008810020B07D0020B0720020507F0020A6
:1053E000B87D0020808000205C7E0020AE37012048
:1053F000A7370120947B0020B23701209F006C006A
:10540000A83701204C7F0020F8730020B03701201E
:10541000B1370120AB3701208C7B0020C0800020F9
:10542000FC7300200C780020B4720020047400206B
:10543000BB370120BC370120A13701201C8100208F
:105440000878002000740020B8800020BC80002074
:1054500018810020A6370120B8370120B537012078
:10546000AC370120B9370120BA3701208E3701202F
:1054700098800020B7370120A0E802105879051065
:10548000012800F033820A2825D100207378C4490E
:105490007A68087103F0010002EB4030C9F80C0192
:1054A00003F0020002EB4030C9F8100103F00300E2
:1054B000C9F8082102EB4032C9F8142103F00102B7
:1054C0004A71C87103F00202B6488A7116F0AAFE4A
:1054D000707816F0A9FEB44B1B78062B03D02B78FE
:1054E000062B7FF40BAE9BF80030002B40F053816D
:1054F0004FF4804016F09EFEAC4B4FF48042FF21EB
:10550000186028F077F9A94BA9491A68237841F85F
:10551000232001332370F1E5012800F095810A284A
:105520007FF491AD3D68A34816F07CFE287816F014
:105530007BFE687816F078FEA87816F075FEE8789D
:1055400016F072FE287916F06FFE687916F06CFE80
:105550000023934D32782B703B68510302F0FE001C
:105560006A7002F0FD02EA7003EB4232A870C9F8DB
:10557000942003EB403001F4FC221A44C9F888302F
:10558000C9F89830C9F890000B448B48C9E920222B
:10559000C9F88C30C9F89C3016F044FE53E5002958
:1055A0007FF41EAC131FFC2B40F2BB80DFF894820B
:1055B000D8F80010012900F3C780022104221EE45C
:1055C0007E4D7F4816F02EFE7E4B2A7853F822003F
:1055D00016F028FE2A789BF80030012A00F0F581A9
:1055E000022A00F0B580A2B9002B00F09D80764819
:1055F00016F018FE754B03F50052C9E9003203F5A9
:10560000804203F5C043C9F80C309BF80030C9F85C
:105610000820002B3FF4ECAC6D4816F003FE6D4BF8
:1056200003F50052C9E96A329BF80030002B3FF4C1
:10563000E6AC694816F0F6FD9BF80030002B3FF40D
:10564000DEAC664816F0EEFD654B03F50052C9E985
:105650007A329BF80030002B3FF4D8AC614816F04A
:10566000E1FDD3E4286816F0DFFD5F4816F0DAFDAF
:1056700099E4D8F80000000116F0D6FD5B4816F05A
:10568000D1FD76E45A4816F0CDFDFFF7D6BB594858
:1056900016F0C8FD8DE5584816F0C4FD574B186844
:1056A00016F0C0FD9BF80030002B3FF43BAD544892
:1056B00016F0B8FD534B544C1B7854F8230016F0E9
:1056C000B1FD524816F0AEFD514B1B7854F8230043
:1056D00016F0A8FD4F4816F0A5FD9BF8000022E546
:1056E0004D4C206816F0A0FD4C4816F09BFD4C4B2D
:1056F0001D46186816F098FD4A4816F093FD236879
:10570000286890FBF3F016F08FFD474816F08AFDED
:105710009BF80030002B3FF42EAE444816F082FD7B
:1057200029E60221FFF762BB284B03F50052C9F8B6
:105730000030C9F8042003F5804203F5C043C9F8DE
:105740000820C9F80C3053E408293FF736AF35E795
:10575000002B00F09B80364816F064FD354B03F5B6
:105760000052C9E900329BF8002003F5804103F59F
:10577000C043C9F80810C9F80C30002A00F0958021
:105780002D4816F04FFD2D4B03F50052C9E9683244
:105790009BF800303DE72A4816F044FDA8E600BF1C
:1057A0000C7F002054E70210CD4C00209480002094
:1057B0000874002020E7021030E70210D04C0020CF
:1057C0003CE60210DCF8021050E602105879041092
:1057D000C0E6021058390510D8E60210F0E60210B3
:1057E00058F90410FCE6021028E6021018E6021030
:1057F000F4E502101CE80210B4E70210B44C0020DB
:10580000C4E70210CF4C0020CCF80210E0E70210F1
:10581000CE4C0020FCE70210D44C00204CE80210D3
:10582000D84C002064E802107CE8021088E80210DE
:1058300090E6021058390310A8E6021058F9021039
:1058400074E70210C44C0020B1F5004F7FF7FBABAA
:10585000002580493B680D7002F0010503EB4535DA
:10586000501EC9F88C5002EA0005C9F88830CA7089
:105870008D7003EB453503EB423302F00102C9F8AA
:105880009050C9F894304A70FFF7DDBB724B03F5B6
:105890000052C9F80030C9F8042003F5804203F52E
:1058A000C043C9F80820C9F80C306C4BC9F8A031C6
:1058B00003F50053C9F8A431FFF79ABB684B03F511
:1058C0000052C9F80030C9F8042003F5804203F5FE
:1058D000C043C9F80820C9F80C30624BC9F8A031A0
:1058E00003F50053C9F8A431FFF782BBB1F5004FAF
:1058F0007FF7BCAB4FF0000C56497B6881F804C0C1
:1059000002F0010C501E03EB4C3CC9F80CC102EA3A
:10591000000C03EB4C30C9F80831CA7103EB423379
:1059200002F0010281F806C0C9F81001C9F814316B
:105930004A71D0E57868FEF797FE28704A4816F05D
:1059400071FC4A4B187816F06FFC287801287FF418
:105950009AAD7278CEE73868FEF786FE434B1D4657
:105960001870414816F05EFC287816F05DFC287827
:1059700001287FF4D4AD32786AE7D9F8A8319A4289
:1059800046D001240025394B1C7029463848FCF7C5
:10599000F3FF00283ED1DAF80030D9F888209A4287
:1059A00036D0D9F8082193427FF4B7AB01213148B2
:1059B000FCF7E2FFFFF7B1BBD9F8A8219A42F5D076
:1059C000012302242B701D46DFE7002B3FF476AF46
:1059D000294816F027FC224B03F50052C9E9003292
:1059E0009BF8002003F5804103F5C043C9F8081077
:1059F000C9F80C30002A3FF470AF204816F012FCB2
:105A0000184B03F50052C9E968329BF8003000E6F4
:105A10000021CCE70020735D0E4A57F8251002F8EC
:105A2000250002EB850203F0010509EBC41401EB2C
:105A30004535581EE56003EA0005A160D3709570F6
:105A400001EB453501EB433103F001032561616151
:105A50005370A0E70C7F00205839031058F902104A
:105A600058F9031058B903100CE70210CD4C002070
:105A70009CE70210A8E7021064E6021078E6021024
:105A8000F8B504460D460026174F3022002110308D
:105A900027F0B0FE0FCFC4E91266A260E360206079
:105AA00061602846314684F85260A4F8506025644D
:105AB000A4F8446084F8466001F028FB3146681C75
:105AC00001F024FB3146A81C01F020FBE81C022158
:105AD00001F01CFB281D022101F018FB681D0221AA
